{
  "_format": "hh-sol-artifact-1",
  "contractName": "ActionExecutor",
  "sourceName": "contracts/core/ActionExecutor.sol",
  "abi": [
    {
      "inputs": [
        {
          "internalType": "address",
          "name": "_perm",
          "type": "address"
        },
        {
          "internalType": "address",
          "name": "_risk",
          "type": "address"
        },
        {
          "internalType": "address",
          "name": "_vault",
          "type": "address"
        },
        {
          "internalType": "address",
          "name": "_agentAuth",
          "type": "address"
        },
        {
          "internalType": "address",
          "name": "_erc8004",
          "type": "address"
        },
        {
          "internalType": "address",
          "name": "_swapProxy",
          "type": "address"
        }
      ],
      "stateMutability": "nonpayable",
      "type": "constructor"
    },
    {
      "anonymous": false,
      "inputs": [
        {
          "indexed": true,
          "internalType": "bytes32",
          "name": "id",
          "type": "bytes32"
        },
        {
          "indexed": true,
          "internalType": "address",
          "name": "agent",
          "type": "address"
        },
        {
          "indexed": false,
          "internalType": "string",
          "name": "actionType",
          "type": "string"
        },
        {
          "indexed": false,
          "internalType": "address",
          "name": "tokenFrom",
          "type": "address"
        },
        {
          "indexed": false,
          "internalType": "address",
          "name": "tokenTo",
          "type": "address"
        },
        {
          "indexed": false,
          "internalType": "uint256",
          "name": "amount",
          "type": "uint256"
        },
        {
          "indexed": false,
          "internalType": "uint256",
          "name": "timestamp",
          "type": "uint256"
        }
      ],
      "name": "ActionExecuted",
      "type": "event"
    },
    {
      "anonymous": false,
      "inputs": [
        {
          "indexed": true,
          "internalType": "bytes32",
          "name": "id",
          "type": "bytes32"
        },
        {
          "indexed": true,
          "internalType": "address",
          "name": "agent",
          "type": "address"
        },
        {
          "indexed": false,
          "internalType": "string",
          "name": "actionType",
          "type": "string"
        },
        {
          "indexed": false,
          "internalType": "address",
          "name": "tokenFrom",
          "type": "address"
        },
        {
          "indexed": false,
          "internalType": "address",
          "name": "tokenTo",
          "type": "address"
        },
        {
          "indexed": false,
          "internalType": "uint256",
          "name": "amount",
          "type": "uint256"
        },
        {
          "indexed": false,
          "internalType": "string",
          "name": "reason",
          "type": "string"
        },
        {
          "indexed": false,
          "internalType": "uint256",
          "name": "timestamp",
          "type": "uint256"
        }
      ],
      "name": "ActionProposed",
      "type": "event"
    },
    {
      "anonymous": false,
      "inputs": [
        {
          "indexed": true,
          "internalType": "address",
          "name": "token",
          "type": "address"
        },
        {
          "indexed": true,
          "internalType": "address",
          "name": "recipient",
          "type": "address"
        },
        {
          "indexed": false,
          "internalType": "uint256",
          "name": "amount",
          "type": "uint256"
        },
        {
          "indexed": false,
          "internalType": "address",
          "name": "initiatedBy",
          "type": "address"
        },
        {
          "indexed": false,
          "internalType": "uint256",
          "name": "timestamp",
          "type": "uint256"
        }
      ],
      "name": "PaymentExecuted",
      "type": "event"
    },
    {
      "inputs": [],
      "name": "agentAuth",
      "outputs": [
        {
          "internalType": "contract IAgentAuth",
          "name": "",
          "type": "address"
        }
      ],
      "stateMutability": "view",
      "type": "function"
    },
    {
      "inputs": [
        {
          "internalType": "bytes32",
          "name": "sessionId",
          "type": "bytes32"
        },
        {
          "internalType": "bytes",
          "name": "execPayload",
          "type": "bytes"
        }
      ],
      "name": "claimSessionAndExecute",
      "outputs": [],
      "stateMutability": "nonpayable",
      "type": "function"
    },
    {
      "inputs": [],
      "name": "erc8004",
      "outputs": [
        {
          "internalType": "contract IERC8004",
          "name": "",
          "type": "address"
        }
      ],
      "stateMutability": "view",
      "type": "function"
    },
    {
      "inputs": [
        {
          "internalType": "address",
          "name": "token",
          "type": "address"
        },
        {
          "internalType": "address",
          "name": "recipient",
          "type": "address"
        },
        {
          "internalType": "uint256",
          "name": "amount",
          "type": "uint256"
        },
        {
          "internalType": "bytes32",
          "name": "actionId",
          "type": "bytes32"
        }
      ],
      "name": "executePayment",
      "outputs": [],
      "stateMutability": "nonpayable",
      "type": "function"
    },
    {
      "inputs": [
        {
          "internalType": "address",
          "name": "tokenFrom",
          "type": "address"
        },
        {
          "internalType": "address",
          "name": "tokenTo",
          "type": "address"
        },
        {
          "internalType": "uint256",
          "name": "amountFrom",
          "type": "uint256"
        },
        {
          "internalType": "bytes",
          "name": "swapData",
          "type": "bytes"
        },
        {
          "internalType": "bytes32",
          "name": "actionId",
          "type": "bytes32"
        }
      ],
      "name": "executeRebalance",
      "outputs": [],
      "stateMutability": "nonpayable",
      "type": "function"
    },
    {
      "inputs": [],
      "name": "perm",
      "outputs": [
        {
          "internalType": "contract PermissionManager",
          "name": "",
          "type": "address"
        }
      ],
      "stateMutability": "view",
      "type": "function"
    },
    {
      "inputs": [
        {
          "internalType": "bytes32",
          "name": "id",
          "type": "bytes32"
        },
        {
          "internalType": "string",
          "name": "actionType",
          "type": "string"
        },
        {
          "internalType": "address",
          "name": "tokenFrom",
          "type": "address"
        },
        {
          "internalType": "address",
          "name": "tokenTo",
          "type": "address"
        },
        {
          "internalType": "uint256",
          "name": "amount",
          "type": "uint256"
        },
        {
          "internalType": "string",
          "name": "reason",
          "type": "string"
        }
      ],
      "name": "proposeAction",
      "outputs": [],
      "stateMutability": "nonpayable",
      "type": "function"
    },
    {
      "inputs": [],
      "name": "risk",
      "outputs": [
        {
          "internalType": "contract RiskParameters",
          "name": "",
          "type": "address"
        }
      ],
      "stateMutability": "view",
      "type": "function"
    },
    {
      "inputs": [
        {
          "internalType": "address",
          "name": "_swapProxy",
          "type": "address"
        }
      ],
      "name": "setSwapProxy",
      "outputs": [],
      "stateMutability": "nonpayable",
      "type": "function"
    },
    {
      "inputs": [],
      "name": "swapProxy",
      "outputs": [
        {
          "internalType": "address",
          "name": "",
          "type": "address"
        }
      ],
      "stateMutability": "view",
      "type": "function"
    },
    {
      "inputs": [],
      "name": "vault",
      "outputs": [
        {
          "internalType": "contract TreasuryVault",
          "name": "",
          "type": "address"
        }
      ],
      "stateMutability": "view",
      "type": "function"
    }
  ],
  "bytecode": "0x60806040523480156200001157600080fd5b5060405162002f2338038062002f2383398181016040528101906200003791906200035c565b6001600081905550600073ffffffffffffffffffffffffffffffffffffffff168673ffffffffffffffffffffffffffffffffffffffff1614158015620000aa5750600073ffffffffffffffffffffffffffffffffffffffff168573ffffffffffffffffffffffffffffffffffffffff1614155b8015620000e45750600073ffffffffffffffffffffffffffffffffffffffff168473ffffffffffffffffffffffffffffffffffffffff1614155b80156200011e5750600073ffffffffffffffffffffffffffffffffffffffff168373ffffffffffffffffffffffffffffffffffffffff1614155b62000160576040517f08c379a0000000000000000000000000000000000000000000000000000000008152600401620001579062000459565b60405180910390fd5b85600160006101000a81548173ffffffffffffffffffffffffffffffffffffffff021916908373ffffffffffffffffffffffffffffffffffffffff16021790555084600260006101000a81548173ffffffffffffffffffffffffffffffffffffffff021916908373ffffffffffffffffffffffffffffffffffffffff16021790555083600360006101000a81548173ffffffffffffffffffffffffffffffffffffffff021916908373ffffffffffffffffffffffffffffffffffffffff16021790555082600460006101000a81548173ffffffffffffffffffffffffffffffffffffffff021916908373ffffffffffffffffffffffffffffffffffffffff16021790555081600560006101000a81548173ffffffffffffffffffffffffffffffffffffffff021916908373ffffffffffffffffffffffffffffffffffffffff16021790555080600660006101000a81548173ffffffffffffffffffffffffffffffffffffffff021916908373ffffffffffffffffffffffffffffffffffffffff1602179055505050505050506200047b565b600080fd5b600073ffffffffffffffffffffffffffffffffffffffff82169050919050565b60006200032482620002f7565b9050919050565b620003368162000317565b81146200034257600080fd5b50565b60008151905062000356816200032b565b92915050565b60008060008060008060c087890312156200037c576200037b620002f2565b5b60006200038c89828a0162000345565b96505060206200039f89828a0162000345565b9550506040620003b289828a0162000345565b9450506060620003c589828a0162000345565b9350506080620003d889828a0162000345565b92505060a0620003eb89828a0162000345565b9150509295509295509295565b600082825260208201905092915050565b7f696e76616c696400000000000000000000000000000000000000000000000000600082015250565b600062000441600783620003f8565b91506200044e8262000409565b602082019050919050565b60006020820190508181036000830152620004748162000432565b9050919050565b612a98806200048b6000396000f3fe608060405234801561001057600080fd5b50600436106100a95760003560e01c8063a8a9768111610071578063a8a9768114610142578063c84a705c1461015e578063d07bdfd21461017a578063de82929114610198578063f699e027146101b4578063fbfa77cf146101d0576100a9565b8063094d1f0d146100ae5780630e1c06e4146100cc5780631657d897146100ea578063426a0c88146101065780636ec4be9014610124575b600080fd5b6100b66101ee565b6040516100c3919061196c565b60405180910390f35b6100d4610214565b6040516100e191906119a8565b60405180910390f35b61010460048036038101906100ff9190611a68565b61023a565b005b61010e6102dc565b60405161011b9190611ae9565b60405180910390f35b61012c610302565b6040516101399190611b25565b60405180910390f35b61015c60048036038101906101579190611ba2565b610328565b005b61017860048036038101906101739190611c3c565b610bc0565b005b610182610ce2565b60405161018f9190611c8a565b60405180910390f35b6101b260048036038101906101ad9190611ca5565b610d08565b005b6101ce60048036038101906101c99190611d62565b6112a2565b005b6101d861148a565b6040516101e59190611e52565b60405180910390f35b600560009054906101000a900473ffffffffffffffffffffffffffffffffffffffff1681565b600160009054906101000a900473ffffffffffffffffffffffffffffffffffffffff1681565b6102426114b0565b600560009054906101000a900473ffffffffffffffffffffffffffffffffffffffff1673ffffffffffffffffffffffffffffffffffffffff1663195cb299846040518263ffffffff1660e01b815260040161029d9190611e7c565b600060405180830381600087803b1580156102b757600080fd5b505af11580156102cb573d6000803e3d6000fd5b505050506102d76114ff565b505050565b600260009054906101000a900473ffffffffffffffffffffffffffffffffffffffff1681565b600660009054906101000a900473ffffffffffffffffffffffffffffffffffffffff1681565b6103306114b0565b600160009054906101000a900473ffffffffffffffffffffffffffffffffffffffff1673ffffffffffffffffffffffffffffffffffffffff16635c975abb6040518163ffffffff1660e01b8152600401602060405180830381865afa15801561039d573d6000803e3d6000fd5b505050506040513d601f19601f820116820180604052508101906103c19190611ecf565b15610401576040517f08c379a00000000000000000000000000000000000000000000000000000000081526004016103f890611f59565b60405180910390fd5b600460009054906101000a900473ffffffffffffffffffffffffffffffffffffffff1673ffffffffffffffffffffffffffffffffffffffff16636bf722ab336040518263ffffffff1660e01b815260040161045c9190611b25565b602060405180830381865afa158015610479573d6000803e3d6000fd5b505050506040513d601f19601f8201168201806040525081019061049d9190611ecf565b806105435750600160009054906101000a900473ffffffffffffffffffffffffffffffffffffffff1673ffffffffffffffffffffffffffffffffffffffff166395a8c58d3360036040518363ffffffff1660e01b8152600401610501929190611ff0565b602060405180830381865afa15801561051e573d6000803e3d6000fd5b505050506040513d601f19601f820116820180604052508101906105429190611ecf565b5b806105e95750600160009054906101000a900473ffffffffffffffffffffffffffffffffffffffff1673ffffffffffffffffffffffffffffffffffffffff166395a8c58d3360026040518363ffffffff1660e01b81526004016105a7929190611ff0565b602060405180830381865afa1580156105c4573d6000803e3d6000fd5b505050506040513d601f19601f820116820180604052508101906105e89190611ecf565b5b610628576040517f08c379a000000000000000000000000000000000000000000000000000000000815260040161061f90612065565b60405180910390fd5b60008673ffffffffffffffffffffffffffffffffffffffff166370a08231600360009054906101000a900473ffffffffffffffffffffffffffffffffffffffff166040518263ffffffff1660e01b81526004016106859190611b25565b602060405180830381865afa1580156106a2573d6000803e3d6000fd5b505050506040513d601f19601f820116820180604052508101906106c6919061209a565b90506000811161070b576040517f08c379a000000000000000000000000000000000000000000000000000000000815260040161070290612113565b60405180910390fd5b6000612710600260009054906101000a900473ffffffffffffffffffffffffffffffffffffffff1673ffffffffffffffffffffffffffffffffffffffff1663cef0ed236040518163ffffffff1660e01b8152600401602060405180830381865afa15801561077d573d6000803e3d6000fd5b505050506040513d601f19601f820116820180604052508101906107a1919061209a565b836107ac9190612162565b6107b691906121d3565b9050808611156107fb576040517f08c379a00000000000000000000000000000000000000000000000000000000081526004016107f290612250565b60405180910390fd5b600360009054906101000a900473ffffffffffffffffffffffffffffffffffffffff1673ffffffffffffffffffffffffffffffffffffffff1663d9caed128930896040518463ffffffff1660e01b815260040161085a939291906122a0565b600060405180830381600087803b15801561087457600080fd5b505af1158015610888573d6000803e3d6000fd5b5050505060008773ffffffffffffffffffffffffffffffffffffffff166370a08231306040518263ffffffff1660e01b81526004016108c79190611b25565b602060405180830381865afa1580156108e4573d6000803e3d6000fd5b505050506040513d601f19601f82011682018060405250810190610908919061209a565b9050600073ffffffffffffffffffffffffffffffffffffffff16600660009054906101000a900473ffffffffffffffffffffffffffffffffffffffff1673ffffffffffffffffffffffffffffffffffffffff1614610ace576109ae600660009054906101000a900473ffffffffffffffffffffffffffffffffffffffff1660008b73ffffffffffffffffffffffffffffffffffffffff166115099092919063ffffffff16565b6109fb600660009054906101000a900473ffffffffffffffffffffffffffffffffffffffff16888b73ffffffffffffffffffffffffffffffffffffffff166115099092919063ffffffff16565b6000600660009054906101000a900473ffffffffffffffffffffffffffffffffffffffff1673ffffffffffffffffffffffffffffffffffffffff168787604051610a46929190612316565b6000604051808303816000865af19150503d8060008114610a83576040519150601f19603f3d011682016040523d82523d6000602084013e610a88565b606091505b5050905080610acc576040517f08c379a0000000000000000000000000000000000000000000000000000000008152600401610ac39061237b565b60405180910390fd5b505b6000818973ffffffffffffffffffffffffffffffffffffffff166370a08231306040518263ffffffff1660e01b8152600401610b0a9190611b25565b602060405180830381865afa158015610b27573d6000803e3d6000fd5b505050506040513d601f19601f82011682018060405250810190610b4b919061209a565b610b55919061239b565b90503373ffffffffffffffffffffffffffffffffffffffff16857f3d2e5a938b87ddb8a1d28b3013784bd5e992cd0d436f925a43f295be5ac105568c8c8542604051610ba4949392919061241b565b60405180910390a350505050610bb86114ff565b505050505050565b600160009054906101000a900473ffffffffffffffffffffffffffffffffffffffff1673ffffffffffffffffffffffffffffffffffffffff166395a8c58d3360026040518363ffffffff1660e01b8152600401610c1e929190611ff0565b602060405180830381865afa158015610c3b573d6000803e3d6000fd5b505050506040513d601f19601f82011682018060405250810190610c5f9190611ecf565b610c9e576040517f08c379a0000000000000000000000000000000000000000000000000000000008152600401610c95906124bf565b60405180910390fd5b80600660006101000a81548173ffffffffffffffffffffffffffffffffffffffff021916908373ffffffffffffffffffffffffffffffffffffffff16021790555050565b600460009054906101000a900473ffffffffffffffffffffffffffffffffffffffff1681565b610d106114b0565b600160009054906101000a900473ffffffffffffffffffffffffffffffffffffffff1673ffffffffffffffffffffffffffffffffffffffff16635c975abb6040518163ffffffff1660e01b8152600401602060405180830381865afa158015610d7d573d6000803e3d6000fd5b505050506040513d601f19601f82011682018060405250810190610da19190611ecf565b15610de1576040517f08c379a0000000000000000000000000000000000000000000000000000000008152600401610dd890611f59565b60405180910390fd5b600460009054906101000a900473ffffffffffffffffffffffffffffffffffffffff1673ffffffffffffffffffffffffffffffffffffffff16636bf722ab336040518263ffffffff1660e01b8152600401610e3c9190611b25565b602060405180830381865afa158015610e59573d6000803e3d6000fd5b505050506040513d601f19601f82011682018060405250810190610e7d9190611ecf565b80610f235750600160009054906101000a900473ffffffffffffffffffffffffffffffffffffffff1673ffffffffffffffffffffffffffffffffffffffff166395a8c58d3360036040518363ffffffff1660e01b8152600401610ee1929190611ff0565b602060405180830381865afa158015610efe573d6000803e3d6000fd5b505050506040513d601f19601f82011682018060405250810190610f229190611ecf565b5b80610fc95750600160009054906101000a900473ffffffffffffffffffffffffffffffffffffffff1673ffffffffffffffffffffffffffffffffffffffff166395a8c58d3360026040518363ffffffff1660e01b8152600401610f87929190611ff0565b602060405180830381865afa158015610fa4573d6000803e3d6000fd5b505050506040513d601f19601f82011682018060405250810190610fc89190611ecf565b5b611008576040517f08c379a0000000000000000000000000000000000000000000000000000000008152600401610fff90612065565b60405180910390fd5b60008473ffffffffffffffffffffffffffffffffffffffff166370a08231600360009054906101000a900473ffffffffffffffffffffffffffffffffffffffff166040518263ffffffff1660e01b81526004016110659190611b25565b602060405180830381865afa158015611082573d6000803e3d6000fd5b505050506040513d601f19601f820116820180604052508101906110a6919061209a565b90506000612710600260009054906101000a900473ffffffffffffffffffffffffffffffffffffffff1673ffffffffffffffffffffffffffffffffffffffff1663cef0ed236040518163ffffffff1660e01b8152600401602060405180830381865afa15801561111a573d6000803e3d6000fd5b505050506040513d601f19601f8201168201806040525081019061113e919061209a565b836111499190612162565b61115391906121d3565b905080841115611198576040517f08c379a000000000000000000000000000000000000000000000000000000000815260040161118f9061252b565b60405180910390fd5b600360009054906101000a900473ffffffffffffffffffffffffffffffffffffffff1673ffffffffffffffffffffffffffffffffffffffff1663d9caed128787876040518463ffffffff1660e01b81526004016111f7939291906122a0565b600060405180830381600087803b15801561121157600080fd5b505af1158015611225573d6000803e3d6000fd5b505050508473ffffffffffffffffffffffffffffffffffffffff168673ffffffffffffffffffffffffffffffffffffffff167f1e4999c2934bc2c84ed0b0bece17c0d5bd7af26349ad6b0ecb629e5400dfd31386334260405161128a9392919061254b565b60405180910390a3505061129c6114ff565b50505050565b600460009054906101000a900473ffffffffffffffffffffffffffffffffffffffff1673ffffffffffffffffffffffffffffffffffffffff16636bf722ab336040518263ffffffff1660e01b81526004016112fd9190611b25565b602060405180830381865afa15801561131a573d6000803e3d6000fd5b505050506040513d601f19601f8201168201806040525081019061133e9190611ecf565b806113e45750600160009054906101000a900473ffffffffffffffffffffffffffffffffffffffff1673ffffffffffffffffffffffffffffffffffffffff166395a8c58d3360036040518363ffffffff1660e01b81526004016113a2929190611ff0565b602060405180830381865afa1580156113bf573d6000803e3d6000fd5b505050506040513d601f19601f820116820180604052508101906113e39190611ecf565b5b611423576040517f08c379a000000000000000000000000000000000000000000000000000000000815260040161141a906125ce565b60405180910390fd5b3373ffffffffffffffffffffffffffffffffffffffff16887fb91cb5ea3cb91d67fb42517684f2e718bdd197f38230dbd7ea0f45c0a157502f898989898989894260405161147898979695949392919061262c565b60405180910390a35050505050505050565b600360009054906101000a900473ffffffffffffffffffffffffffffffffffffffff1681565b6002600054036114f5576040517f08c379a00000000000000000000000000000000000000000000000000000000081526004016114ec906126eb565b60405180910390fd5b6002600081905550565b6001600081905550565b6000811480611593575060008373ffffffffffffffffffffffffffffffffffffffff1663dd62ed3e30856040518363ffffffff1660e01b815260040161155092919061270b565b602060405180830381865afa15801561156d573d6000803e3d6000fd5b505050506040513d601f19601f82011682018060405250810190611591919061209a565b145b6115d2576040517f08c379a00000000000000000000000000000000000000000000000000000000081526004016115c9906127a6565b60405180910390fd5b6116538363095ea7b360e01b84846040516024016115f19291906127c6565b604051602081830303815290604052907bffffffffffffffffffffffffffffffffffffffffffffffffffffffff19166020820180517bffffffffffffffffffffffffffffffffffffffffffffffffffffffff8381831617835250505050611658565b505050565b60006116ba826040518060400160405280602081526020017f5361666545524332303a206c6f772d6c6576656c2063616c6c206661696c65648152508573ffffffffffffffffffffffffffffffffffffffff166117209092919063ffffffff16565b90506000815114806116dc5750808060200190518101906116db9190611ecf565b5b61171b576040517f08c379a000000000000000000000000000000000000000000000000000000000815260040161171290612861565b60405180910390fd5b505050565b606061172f8484600085611738565b90509392505050565b60608247101561177d576040517f08c379a0000000000000000000000000000000000000000000000000000000008152600401611774906128f3565b60405180910390fd5b6000808673ffffffffffffffffffffffffffffffffffffffff1685876040516117a69190612979565b60006040518083038185875af1925050503d80600081146117e3576040519150601f19603f3d011682016040523d82523d6000602084013e6117e8565b606091505b50915091506117f987838387611805565b92505050949350505050565b6060831561186757600083510361185f5761181f8561187a565b61185e576040517f08c379a0000000000000000000000000000000000000000000000000000000008152600401611855906129dc565b60405180910390fd5b5b829050611872565b611871838361189d565b5b949350505050565b6000808273ffffffffffffffffffffffffffffffffffffffff163b119050919050565b6000825111156118b05781518083602001fd5b806040517f08c379a00000000000000000000000000000000000000000000000000000000081526004016118e49190612a40565b60405180910390fd5b600073ffffffffffffffffffffffffffffffffffffffff82169050919050565b6000819050919050565b600061193261192d611928846118ed565b61190d565b6118ed565b9050919050565b600061194482611917565b9050919050565b600061195682611939565b9050919050565b6119668161194b565b82525050565b6000602082019050611981600083018461195d565b92915050565b600061199282611939565b9050919050565b6119a281611987565b82525050565b60006020820190506119bd6000830184611999565b92915050565b600080fd5b600080fd5b6000819050919050565b6119e0816119cd565b81146119eb57600080fd5b50565b6000813590506119fd816119d7565b92915050565b600080fd5b600080fd5b600080fd5b60008083601f840112611a2857611a27611a03565b5b8235905067ffffffffffffffff811115611a4557611a44611a08565b5b602083019150836001820283011115611a6157611a60611a0d565b5b9250929050565b600080600060408486031215611a8157611a806119c3565b5b6000611a8f868287016119ee565b935050602084013567ffffffffffffffff811115611ab057611aaf6119c8565b5b611abc86828701611a12565b92509250509250925092565b6000611ad382611939565b9050919050565b611ae381611ac8565b82525050565b6000602082019050611afe6000830184611ada565b92915050565b6000611b0f826118ed565b9050919050565b611b1f81611b04565b82525050565b6000602082019050611b3a6000830184611b16565b92915050565b611b4981611b04565b8114611b5457600080fd5b50565b600081359050611b6681611b40565b92915050565b6000819050919050565b611b7f81611b6c565b8114611b8a57600080fd5b50565b600081359050611b9c81611b76565b92915050565b60008060008060008060a08789031215611bbf57611bbe6119c3565b5b6000611bcd89828a01611b57565b9650506020611bde89828a01611b57565b9550506040611bef89828a01611b8d565b945050606087013567ffffffffffffffff811115611c1057611c0f6119c8565b5b611c1c89828a01611a12565b93509350506080611c2f89828a016119ee565b9150509295509295509295565b600060208284031215611c5257611c516119c3565b5b6000611c6084828501611b57565b91505092915050565b6000611c7482611939565b9050919050565b611c8481611c69565b82525050565b6000602082019050611c9f6000830184611c7b565b92915050565b60008060008060808587031215611cbf57611cbe6119c3565b5b6000611ccd87828801611b57565b9450506020611cde87828801611b57565b9350506040611cef87828801611b8d565b9250506060611d00878288016119ee565b91505092959194509250565b60008083601f840112611d2257611d21611a03565b5b8235905067ffffffffffffffff811115611d3f57611d3e611a08565b5b602083019150836001820283011115611d5b57611d5a611a0d565b5b9250929050565b60008060008060008060008060c0898b031215611d8257611d816119c3565b5b6000611d908b828c016119ee565b985050602089013567ffffffffffffffff811115611db157611db06119c8565b5b611dbd8b828c01611d0c565b97509750506040611dd08b828c01611b57565b9550506060611de18b828c01611b57565b9450506080611df28b828c01611b8d565b93505060a089013567ffffffffffffffff811115611e1357611e126119c8565b5b611e1f8b828c01611d0c565b92509250509295985092959890939650565b6000611e3c82611939565b9050919050565b611e4c81611e31565b82525050565b6000602082019050611e676000830184611e43565b92915050565b611e76816119cd565b82525050565b6000602082019050611e916000830184611e6d565b92915050565b60008115159050919050565b611eac81611e97565b8114611eb757600080fd5b50565b600081519050611ec981611ea3565b92915050565b600060208284031215611ee557611ee46119c3565b5b6000611ef384828501611eba565b91505092915050565b600082825260208201905092915050565b7f73797374656d2070617573656400000000000000000000000000000000000000600082015250565b6000611f43600d83611efc565b9150611f4e82611f0d565b602082019050919050565b60006020820190508181036000830152611f7281611f36565b9050919050565b7f4e487b7100000000000000000000000000000000000000000000000000000000600052602160045260246000fd5b60048110611fb957611fb8611f79565b5b50565b6000819050611fca82611fa8565b919050565b6000611fda82611fbc565b9050919050565b611fea81611fcf565b82525050565b60006040820190506120056000830185611b16565b6120126020830184611fe1565b9392505050565b7f6e6f7420617574686f72697a6564000000000000000000000000000000000000600082015250565b600061204f600e83611efc565b915061205a82612019565b602082019050919050565b6000602082019050818103600083015261207e81612042565b9050919050565b60008151905061209481611b76565b92915050565b6000602082840312156120b0576120af6119c3565b5b60006120be84828501612085565b91505092915050565b7f696e73756666696369656e74207661756c742062616c616e6365000000000000600082015250565b60006120fd601a83611efc565b9150612108826120c7565b602082019050919050565b6000602082019050818103600083015261212c816120f0565b9050919050565b7f4e487b7100000000000000000000000000000000000000000000000000000000600052601160045260246000fd5b600061216d82611b6c565b915061217883611b6c565b925082820261218681611b6c565b9150828204841483151761219d5761219c612133565b5b5092915050565b7f4e487b7100000000000000000000000000000000000000000000000000000000600052601260045260246000fd5b60006121de82611b6c565b91506121e983611b6c565b9250826121f9576121f86121a4565b5b828204905092915050565b7f6578636565647320726562616c616e6365206361700000000000000000000000600082015250565b600061223a601583611efc565b915061224582612204565b602082019050919050565b600060208201905081810360008301526122698161222d565b9050919050565b600061227b82611939565b9050919050565b61228b81612270565b82525050565b61229a81611b6c565b82525050565b60006060820190506122b56000830186612282565b6122c26020830185611b16565b6122cf6040830184612291565b949350505050565b600081905092915050565b82818337600083830152505050565b60006122fd83856122d7565b935061230a8385846122e2565b82840190509392505050565b60006123238284866122f1565b91508190509392505050565b7f73776170206661696c6564000000000000000000000000000000000000000000600082015250565b6000612365600b83611efc565b91506123708261232f565b602082019050919050565b6000602082019050818103600083015261239481612358565b9050919050565b60006123a682611b6c565b91506123b183611b6c565b92508282039050818111156123c9576123c8612133565b5b92915050565b7f524542414c414e43450000000000000000000000000000000000000000000000600082015250565b6000612405600983611efc565b9150612410826123cf565b602082019050919050565b600060a0820190508181036000830152612434816123f8565b90506124436020830187611b16565b6124506040830186611b16565b61245d6060830185612291565b61246a6080830184612291565b95945050505050565b7f6e6f7420676f7665726e616e6365000000000000000000000000000000000000600082015250565b60006124a9600e83611efc565b91506124b482612473565b602082019050919050565b600060208201905081810360008301526124d88161249c565b9050919050565b7f65786365656473207061796d656e742063617000000000000000000000000000600082015250565b6000612515601383611efc565b9150612520826124df565b602082019050919050565b6000602082019050818103600083015261254481612508565b9050919050565b60006060820190506125606000830186612291565b61256d6020830185611b16565b61257a6040830184612291565b949350505050565b7f6e6f74206167656e740000000000000000000000000000000000000000000000600082015250565b60006125b8600983611efc565b91506125c382612582565b602082019050919050565b600060208201905081810360008301526125e7816125ab565b9050919050565b6000601f19601f8301169050919050565b600061260b8385611efc565b93506126188385846122e2565b612621836125ee565b840190509392505050565b600060c0820190508181036000830152612647818a8c6125ff565b90506126566020830189611b16565b6126636040830188611b16565b6126706060830187612291565b81810360808301526126838185876125ff565b905061269260a0830184612291565b9998505050505050505050565b7f5265656e7472616e637947756172643a207265656e7472616e742063616c6c00600082015250565b60006126d5601f83611efc565b91506126e08261269f565b602082019050919050565b60006020820190508181036000830152612704816126c8565b9050919050565b60006040820190506127206000830185611b16565b61272d6020830184611b16565b9392505050565b7f5361666545524332303a20617070726f76652066726f6d206e6f6e2d7a65726f60008201527f20746f206e6f6e2d7a65726f20616c6c6f77616e636500000000000000000000602082015250565b6000612790603683611efc565b915061279b82612734565b604082019050919050565b600060208201905081810360008301526127bf81612783565b9050919050565b60006040820190506127db6000830185611b16565b6127e86020830184612291565b9392505050565b7f5361666545524332303a204552433230206f7065726174696f6e20646964206e60008201527f6f74207375636365656400000000000000000000000000000000000000000000602082015250565b600061284b602a83611efc565b9150612856826127ef565b604082019050919050565b6000602082019050818103600083015261287a8161283e565b9050919050565b7f416464726573733a20696e73756666696369656e742062616c616e636520666f60008201527f722063616c6c0000000000000000000000000000000000000000000000000000602082015250565b60006128dd602683611efc565b91506128e882612881565b604082019050919050565b6000602082019050818103600083015261290c816128d0565b9050919050565b600081519050919050565b60005b8381101561293c578082015181840152602081019050612921565b60008484015250505050565b600061295382612913565b61295d81856122d7565b935061296d81856020860161291e565b80840191505092915050565b60006129858284612948565b915081905092915050565b7f416464726573733a2063616c6c20746f206e6f6e2d636f6e7472616374000000600082015250565b60006129c6601d83611efc565b91506129d182612990565b602082019050919050565b600060208201905081810360008301526129f5816129b9565b9050919050565b600081519050919050565b6000612a12826129fc565b612a1c8185611efc565b9350612a2c81856020860161291e565b612a35816125ee565b840191505092915050565b60006020820190508181036000830152612a5a8184612a07565b90509291505056fea2646970667358221220910b8bca8c320cf3667831ccfb5dc65a5dea89e4912370585dd4e87ac66dd21664736f6c63430008110033",
  "linkReferences": {},
  "deployedLinkReferences": {}
}