{
  "_format": "hh-sol-artifact-1",
  "contractName": "AgentAuth",
  "sourceName": "contracts/auth/AgentAuth.sol",
  "abi": [
    {
      "anonymous": false,
      "inputs": [
        {
          "indexed": true,
          "internalType": "address",
          "name": "agent",
          "type": "address"
        }
      ],
      "name": "AgentAdded",
      "type": "event"
    },
    {
      "anonymous": false,
      "inputs": [
        {
          "indexed": true,
          "internalType": "address",
          "name": "agent",
          "type": "address"
        }
      ],
      "name": "AgentRemoved",
      "type": "event"
    },
    {
      "anonymous": false,
      "inputs": [
        {
          "indexed": true,
          "internalType": "address",
          "name": "previousOwner",
          "type": "address"
        },
        {
          "indexed": true,
          "internalType": "address",
          "name": "newOwner",
          "type": "address"
        }
      ],
      "name": "OwnershipTransferred",
      "type": "event"
    },
    {
      "inputs": [
        {
          "internalType": "address",
          "name": "a",
          "type": "address"
        }
      ],
      "name": "addAgent",
      "outputs": [],
      "stateMutability": "nonpayable",
      "type": "function"
    },
    {
      "inputs": [
        {
          "internalType": "address",
          "name": "",
          "type": "address"
        }
      ],
      "name": "agents",
      "outputs": [
        {
          "internalType": "bool",
          "name": "",
          "type": "bool"
        }
      ],
      "stateMutability": "view",
      "type": "function"
    },
    {
      "inputs": [
        {
          "internalType": "address",
          "name": "a",
          "type": "address"
        }
      ],
      "name": "isAuthorizedAgent",
      "outputs": [
        {
          "internalType": "bool",
          "name": "",
          "type": "bool"
        }
      ],
      "stateMutability": "view",
      "type": "function"
    },
    {
      "inputs": [],
      "name": "owner",
      "outputs": [
        {
          "internalType": "address",
          "name": "",
          "type": "address"
        }
      ],
      "stateMutability": "view",
      "type": "function"
    },
    {
      "inputs": [
        {
          "internalType": "address",
          "name": "a",
          "type": "address"
        }
      ],
      "name": "removeAgent",
      "outputs": [],
      "stateMutability": "nonpayable",
      "type": "function"
    },
    {
      "inputs": [],
      "name": "renounceOwnership",
      "outputs": [],
      "stateMutability": "nonpayable",
      "type": "function"
    },
    {
      "inputs": [
        {
          "internalType": "address",
          "name": "newOwner",
          "type": "address"
        }
      ],
      "name": "transferOwnership",
      "outputs": [],
      "stateMutability": "nonpayable",
      "type": "function"
    }
  ],
  "bytecode": "0x608060405234801561001057600080fd5b5061002d61002261003260201b60201c565b61003a60201b60201c565b6100fe565b600033905090565b60008060009054906101000a900473ffffffffffffffffffffffffffffffffffffffff169050816000806101000a81548173ffffffffffffffffffffffffffffffffffffffff021916908373ffffffffffffffffffffffffffffffffffffffff1602179055508173ffffffffffffffffffffffffffffffffffffffff168173ffffffffffffffffffffffffffffffffffffffff167f8be0079c531659141344cd1fd0a4f28419497f9722a3daafe3b4186f6b6457e060405160405180910390a35050565b61075e8061010d6000396000f3fe608060405234801561001057600080fd5b506004361061007d5760003560e01c80638da5cb5b1161005b5780638da5cb5b146100d857806397a6278e146100f6578063f2fde38b14610112578063fd66091e1461012e5761007d565b80636bf722ab14610082578063715018a6146100b257806384e79842146100bc575b600080fd5b61009c6004803603810190610097919061058c565b61015e565b6040516100a991906105d4565b60405180910390f35b6100ba6101b4565b005b6100d660048036038101906100d1919061058c565b6101c8565b005b6100e061026d565b6040516100ed91906105fe565b60405180910390f35b610110600480360381019061010b919061058c565b610296565b005b61012c6004803603810190610127919061058c565b61033c565b005b6101486004803603810190610143919061058c565b6103bf565b60405161015591906105d4565b60405180910390f35b6000600160008373ffffffffffffffffffffffffffffffffffffffff1673ffffffffffffffffffffffffffffffffffffffff16815260200190815260200160002060009054906101000a900460ff169050919050565b6101bc6103df565b6101c6600061045d565b565b6101d06103df565b60018060008373ffffffffffffffffffffffffffffffffffffffff1673ffffffffffffffffffffffffffffffffffffffff16815260200190815260200160002060006101000a81548160ff0219169083151502179055508073ffffffffffffffffffffffffffffffffffffffff167ff68e73cec97f2d70aa641fb26e87a4383686e2efacb648f2165aeb02ac562ec560405160405180910390a250565b60008060009054906101000a900473ffffffffffffffffffffffffffffffffffffffff16905090565b61029e6103df565b6000600160008373ffffffffffffffffffffffffffffffffffffffff1673ffffffffffffffffffffffffffffffffffffffff16815260200190815260200160002060006101000a81548160ff0219169083151502179055508073ffffffffffffffffffffffffffffffffffffffff167fed9c8ad8d5a0a66898ea49d2956929c93ae2e8bd50281b2ed897c5d1a6737e0b60405160405180910390a250565b6103446103df565b600073ffffffffffffffffffffffffffffffffffffffff168173ffffffffffffffffffffffffffffffffffffffff16036103b3576040517f08c379a00000000000000000000000000000000000000000000000000000000081526004016103aa9061069c565b60405180910390fd5b6103bc8161045d565b50565b60016020528060005260406000206000915054906101000a900460ff1681565b6103e7610521565b73ffffffffffffffffffffffffffffffffffffffff1661040561026d565b73ffffffffffffffffffffffffffffffffffffffff161461045b576040517f08c379a000000000000000000000000000000000000000000000000000000000815260040161045290610708565b60405180910390fd5b565b60008060009054906101000a900473ffffffffffffffffffffffffffffffffffffffff169050816000806101000a81548173ffffffffffffffffffffffffffffffffffffffff021916908373ffffffffffffffffffffffffffffffffffffffff1602179055508173ffffffffffffffffffffffffffffffffffffffff168173ffffffffffffffffffffffffffffffffffffffff167f8be0079c531659141344cd1fd0a4f28419497f9722a3daafe3b4186f6b6457e060405160405180910390a35050565b600033905090565b600080fd5b600073ffffffffffffffffffffffffffffffffffffffff82169050919050565b60006105598261052e565b9050919050565b6105698161054e565b811461057457600080fd5b50565b60008135905061058681610560565b92915050565b6000602082840312156105a2576105a1610529565b5b60006105b084828501610577565b91505092915050565b60008115159050919050565b6105ce816105b9565b82525050565b60006020820190506105e960008301846105c5565b92915050565b6105f88161054e565b82525050565b600060208201905061061360008301846105ef565b92915050565b600082825260208201905092915050565b7f4f776e61626c653a206e6577206f776e657220697320746865207a65726f206160008201527f6464726573730000000000000000000000000000000000000000000000000000602082015250565b6000610686602683610619565b91506106918261062a565b604082019050919050565b600060208201905081810360008301526106b581610679565b9050919050565b7f4f776e61626c653a2063616c6c6572206973206e6f7420746865206f776e6572600082015250565b60006106f2602083610619565b91506106fd826106bc565b602082019050919050565b60006020820190508181036000830152610721816106e5565b905091905056fea2646970667358221220d49245e0d9b84b3bdec7e95698373c61c5e83dff2ece3ef9bf8476fce908aa0064736f6c63430008110033",
  "linkReferences": {},
  "deployedLinkReferences": {}
}