{
  "_format": "hh-sol-artifact-1",
  "contractName": "TreasuryVault",
  "sourceName": "contracts/core/TreasuryVault.sol",
  "abi": [
    {
      "inputs": [
        {
          "internalType": "address",
          "name": "_perm",
          "type": "address"
        },
        {
          "internalType": "address",
          "name": "_agentAuth",
          "type": "address"
        },
        {
          "internalType": "address",
          "name": "_risk",
          "type": "address"
        }
      ],
      "stateMutability": "nonpayable",
      "type": "constructor"
    },
    {
      "anonymous": false,
      "inputs": [
        {
          "indexed": true,
          "internalType": "address",
          "name": "token",
          "type": "address"
        },
        {
          "indexed": true,
          "internalType": "address",
          "name": "from",
          "type": "address"
        },
        {
          "indexed": false,
          "internalType": "uint256",
          "name": "amount",
          "type": "uint256"
        }
      ],
      "name": "Deposited",
      "type": "event"
    },
    {
      "anonymous": false,
      "inputs": [
        {
          "indexed": true,
          "internalType": "address",
          "name": "previousOwner",
          "type": "address"
        },
        {
          "indexed": true,
          "internalType": "address",
          "name": "newOwner",
          "type": "address"
        }
      ],
      "name": "OwnershipTransferred",
      "type": "event"
    },
    {
      "anonymous": false,
      "inputs": [
        {
          "indexed": true,
          "internalType": "address",
          "name": "token",
          "type": "address"
        },
        {
          "indexed": true,
          "internalType": "address",
          "name": "to",
          "type": "address"
        },
        {
          "indexed": false,
          "internalType": "uint256",
          "name": "amount",
          "type": "uint256"
        }
      ],
      "name": "Withdrawn",
      "type": "event"
    },
    {
      "inputs": [],
      "name": "agentAuth",
      "outputs": [
        {
          "internalType": "contract IAgentAuth",
          "name": "",
          "type": "address"
        }
      ],
      "stateMutability": "view",
      "type": "function"
    },
    {
      "inputs": [
        {
          "internalType": "contract IERC20",
          "name": "token",
          "type": "address"
        }
      ],
      "name": "balanceOf",
      "outputs": [
        {
          "internalType": "uint256",
          "name": "",
          "type": "uint256"
        }
      ],
      "stateMutability": "view",
      "type": "function"
    },
    {
      "inputs": [
        {
          "internalType": "contract IERC20",
          "name": "token",
          "type": "address"
        },
        {
          "internalType": "uint256",
          "name": "amount",
          "type": "uint256"
        }
      ],
      "name": "deposit",
      "outputs": [],
      "stateMutability": "nonpayable",
      "type": "function"
    },
    {
      "inputs": [],
      "name": "owner",
      "outputs": [
        {
          "internalType": "address",
          "name": "",
          "type": "address"
        }
      ],
      "stateMutability": "view",
      "type": "function"
    },
    {
      "inputs": [],
      "name": "perm",
      "outputs": [
        {
          "internalType": "contract PermissionManager",
          "name": "",
          "type": "address"
        }
      ],
      "stateMutability": "view",
      "type": "function"
    },
    {
      "inputs": [],
      "name": "renounceOwnership",
      "outputs": [],
      "stateMutability": "nonpayable",
      "type": "function"
    },
    {
      "inputs": [],
      "name": "risk",
      "outputs": [
        {
          "internalType": "contract RiskParameters",
          "name": "",
          "type": "address"
        }
      ],
      "stateMutability": "view",
      "type": "function"
    },
    {
      "inputs": [
        {
          "internalType": "address",
          "name": "newOwner",
          "type": "address"
        }
      ],
      "name": "transferOwnership",
      "outputs": [],
      "stateMutability": "nonpayable",
      "type": "function"
    },
    {
      "inputs": [
        {
          "internalType": "contract IERC20",
          "name": "token",
          "type": "address"
        },
        {
          "internalType": "address",
          "name": "to",
          "type": "address"
        },
        {
          "internalType": "uint256",
          "name": "amount",
          "type": "uint256"
        }
      ],
      "name": "withdraw",
      "outputs": [],
      "stateMutability": "nonpayable",
      "type": "function"
    }
  ],
  "bytecode": "0x60806040523480156200001157600080fd5b5060405162001d0c38038062001d0c833981810160405281019062000037919062000347565b620000576200004b6200021160201b60201c565b6200021960201b60201c565b60018081905550600073ffffffffffffffffffffffffffffffffffffffff168373ffffffffffffffffffffffffffffffffffffffff1614158015620000c95750600073ffffffffffffffffffffffffffffffffffffffff168273ffffffffffffffffffffffffffffffffffffffff1614155b8015620001035750600073ffffffffffffffffffffffffffffffffffffffff168173ffffffffffffffffffffffffffffffffffffffff1614155b62000145576040517f08c379a00000000000000000000000000000000000000000000000000000000081526004016200013c9062000404565b60405180910390fd5b82600260006101000a81548173ffffffffffffffffffffffffffffffffffffffff021916908373ffffffffffffffffffffffffffffffffffffffff16021790555081600460006101000a81548173ffffffffffffffffffffffffffffffffffffffff021916908373ffffffffffffffffffffffffffffffffffffffff16021790555080600360006101000a81548173ffffffffffffffffffffffffffffffffffffffff021916908373ffffffffffffffffffffffffffffffffffffffff16021790555050505062000426565b600033905090565b60008060009054906101000a900473ffffffffffffffffffffffffffffffffffffffff169050816000806101000a81548173ffffffffffffffffffffffffffffffffffffffff021916908373ffffffffffffffffffffffffffffffffffffffff1602179055508173ffffffffffffffffffffffffffffffffffffffff168173ffffffffffffffffffffffffffffffffffffffff167f8be0079c531659141344cd1fd0a4f28419497f9722a3daafe3b4186f6b6457e060405160405180910390a35050565b600080fd5b600073ffffffffffffffffffffffffffffffffffffffff82169050919050565b60006200030f82620002e2565b9050919050565b620003218162000302565b81146200032d57600080fd5b50565b600081519050620003418162000316565b92915050565b600080600060608486031215620003635762000362620002dd565b5b6000620003738682870162000330565b9350506020620003868682870162000330565b9250506040620003998682870162000330565b9150509250925092565b600082825260208201905092915050565b7f696e76616c696420616464726573736573000000000000000000000000000000600082015250565b6000620003ec601183620003a3565b9150620003f982620003b4565b602082019050919050565b600060208201905081810360008301526200041f81620003dd565b9050919050565b6118d680620004366000396000f3fe608060405234801561001057600080fd5b50600436106100935760003560e01c8063715018a611610066578063715018a6146101205780638da5cb5b1461012a578063d07bdfd214610148578063d9caed1214610166578063f2fde38b1461018257610093565b80630e1c06e414610098578063426a0c88146100b657806347e7ef24146100d457806370a08231146100f0575b600080fd5b6100a061019e565b6040516100ad9190610de3565b60405180910390f35b6100be6101c4565b6040516100cb9190610e1f565b60405180910390f35b6100ee60048036038101906100e99190610ec5565b6101ea565b005b61010a60048036038101906101059190610f05565b6102d3565b6040516101179190610f41565b60405180910390f35b610128610356565b005b61013261036a565b60405161013f9190610f6b565b60405180910390f35b610150610393565b60405161015d9190610fa7565b60405180910390f35b610180600480360381019061017b9190610fee565b6103b9565b005b61019c60048036038101906101979190611041565b61079b565b005b600260009054906101000a900473ffffffffffffffffffffffffffffffffffffffff1681565b600360009054906101000a900473ffffffffffffffffffffffffffffffffffffffff1681565b6101f261081e565b60008111610235576040517f08c379a000000000000000000000000000000000000000000000000000000000815260040161022c906110cb565b60405180910390fd5b6102623330838573ffffffffffffffffffffffffffffffffffffffff1661086d909392919063ffffffff16565b3373ffffffffffffffffffffffffffffffffffffffff168273ffffffffffffffffffffffffffffffffffffffff167f8752a472e571a816aea92eec8dae9baf628e840f4929fbcc2d155e6233ff68a7836040516102bf9190610f41565b60405180910390a36102cf6108f6565b5050565b60008173ffffffffffffffffffffffffffffffffffffffff166370a08231306040518263ffffffff1660e01b815260040161030e9190610f6b565b602060405180830381865afa15801561032b573d6000803e3d6000fd5b505050506040513d601f19601f8201168201806040525081019061034f9190611100565b9050919050565b61035e6108ff565b610368600061097d565b565b60008060009054906101000a900473ffffffffffffffffffffffffffffffffffffffff16905090565b600460009054906101000a900473ffffffffffffffffffffffffffffffffffffffff1681565b6103c161081e565b60008111610404576040517f08c379a00000000000000000000000000000000000000000000000000000000081526004016103fb906110cb565b60405180910390fd5b600073ffffffffffffffffffffffffffffffffffffffff168273ffffffffffffffffffffffffffffffffffffffff1603610473576040517f08c379a000000000000000000000000000000000000000000000000000000000815260040161046a90611179565b60405180910390fd5b600260009054906101000a900473ffffffffffffffffffffffffffffffffffffffff1673ffffffffffffffffffffffffffffffffffffffff166395a8c58d3360036040518363ffffffff1660e01b81526004016104d1929190611210565b602060405180830381865afa1580156104ee573d6000803e3d6000fd5b505050506040513d601f19601f820116820180604052508101906105129190611271565b8061054f575061052061036a565b73ffffffffffffffffffffffffffffffffffffffff163373ffffffffffffffffffffffffffffffffffffffff16145b61058e576040517f08c379a0000000000000000000000000000000000000000000000000000000008152600401610585906112ea565b60405180910390fd5b60008373ffffffffffffffffffffffffffffffffffffffff166370a08231306040518263ffffffff1660e01b81526004016105c99190610f6b565b602060405180830381865afa1580156105e6573d6000803e3d6000fd5b505050506040513d601f19601f8201168201806040525081019061060a9190611100565b90506000612710600360009054906101000a900473ffffffffffffffffffffffffffffffffffffffff1673ffffffffffffffffffffffffffffffffffffffff1663cef0ed236040518163ffffffff1660e01b8152600401602060405180830381865afa15801561067e573d6000803e3d6000fd5b505050506040513d601f19601f820116820180604052508101906106a29190611100565b836106ad9190611339565b6106b791906113aa565b9050808311156106fc576040517f08c379a00000000000000000000000000000000000000000000000000000000081526004016106f390611427565b60405180910390fd5b61072784848773ffffffffffffffffffffffffffffffffffffffff16610a419092919063ffffffff16565b8373ffffffffffffffffffffffffffffffffffffffff168573ffffffffffffffffffffffffffffffffffffffff167fd1c19fbcd4551a5edfb66d43d2e337c04837afda3482b42bdf569a8fccdae5fb856040516107849190610f41565b60405180910390a350506107966108f6565b505050565b6107a36108ff565b600073ffffffffffffffffffffffffffffffffffffffff168173ffffffffffffffffffffffffffffffffffffffff1603610812576040517f08c379a0000000000000000000000000000000000000000000000000000000008152600401610809906114b9565b60405180910390fd5b61081b8161097d565b50565b600260015403610863576040517f08c379a000000000000000000000000000000000000000000000000000000000815260040161085a90611525565b60405180910390fd5b6002600181905550565b6108f0846323b872dd60e01b85858560405160240161088e93929190611545565b604051602081830303815290604052907bffffffffffffffffffffffffffffffffffffffffffffffffffffffff19166020820180517bffffffffffffffffffffffffffffffffffffffffffffffffffffffff8381831617835250505050610ac7565b50505050565b60018081905550565b610907610b8f565b73ffffffffffffffffffffffffffffffffffffffff1661092561036a565b73ffffffffffffffffffffffffffffffffffffffff161461097b576040517f08c379a0000000000000000000000000000000000000000000000000000000008152600401610972906115c8565b60405180910390fd5b565b60008060009054906101000a900473ffffffffffffffffffffffffffffffffffffffff169050816000806101000a81548173ffffffffffffffffffffffffffffffffffffffff021916908373ffffffffffffffffffffffffffffffffffffffff1602179055508173ffffffffffffffffffffffffffffffffffffffff168173ffffffffffffffffffffffffffffffffffffffff167f8be0079c531659141344cd1fd0a4f28419497f9722a3daafe3b4186f6b6457e060405160405180910390a35050565b610ac28363a9059cbb60e01b8484604051602401610a609291906115e8565b604051602081830303815290604052907bffffffffffffffffffffffffffffffffffffffffffffffffffffffff19166020820180517bffffffffffffffffffffffffffffffffffffffffffffffffffffffff8381831617835250505050610ac7565b505050565b6000610b29826040518060400160405280602081526020017f5361666545524332303a206c6f772d6c6576656c2063616c6c206661696c65648152508573ffffffffffffffffffffffffffffffffffffffff16610b979092919063ffffffff16565b9050600081511480610b4b575080806020019051810190610b4a9190611271565b5b610b8a576040517f08c379a0000000000000000000000000000000000000000000000000000000008152600401610b8190611683565b60405180910390fd5b505050565b600033905090565b6060610ba68484600085610baf565b90509392505050565b606082471015610bf4576040517f08c379a0000000000000000000000000000000000000000000000000000000008152600401610beb90611715565b60405180910390fd5b6000808673ffffffffffffffffffffffffffffffffffffffff168587604051610c1d91906117a6565b60006040518083038185875af1925050503d8060008114610c5a576040519150601f19603f3d011682016040523d82523d6000602084013e610c5f565b606091505b5091509150610c7087838387610c7c565b92505050949350505050565b60608315610cde576000835103610cd657610c9685610cf1565b610cd5576040517f08c379a0000000000000000000000000000000000000000000000000000000008152600401610ccc90611809565b60405180910390fd5b5b829050610ce9565b610ce88383610d14565b5b949350505050565b6000808273ffffffffffffffffffffffffffffffffffffffff163b119050919050565b600082511115610d275781518083602001fd5b806040517f08c379a0000000000000000000000000000000000000000000000000000000008152600401610d5b919061187e565b60405180910390fd5b600073ffffffffffffffffffffffffffffffffffffffff82169050919050565b6000819050919050565b6000610da9610da4610d9f84610d64565b610d84565b610d64565b9050919050565b6000610dbb82610d8e565b9050919050565b6000610dcd82610db0565b9050919050565b610ddd81610dc2565b82525050565b6000602082019050610df86000830184610dd4565b92915050565b6000610e0982610db0565b9050919050565b610e1981610dfe565b82525050565b6000602082019050610e346000830184610e10565b92915050565b600080fd5b6000610e4a82610d64565b9050919050565b6000610e5c82610e3f565b9050919050565b610e6c81610e51565b8114610e7757600080fd5b50565b600081359050610e8981610e63565b92915050565b6000819050919050565b610ea281610e8f565b8114610ead57600080fd5b50565b600081359050610ebf81610e99565b92915050565b60008060408385031215610edc57610edb610e3a565b5b6000610eea85828601610e7a565b9250506020610efb85828601610eb0565b9150509250929050565b600060208284031215610f1b57610f1a610e3a565b5b6000610f2984828501610e7a565b91505092915050565b610f3b81610e8f565b82525050565b6000602082019050610f566000830184610f32565b92915050565b610f6581610e3f565b82525050565b6000602082019050610f806000830184610f5c565b92915050565b6000610f9182610db0565b9050919050565b610fa181610f86565b82525050565b6000602082019050610fbc6000830184610f98565b92915050565b610fcb81610e3f565b8114610fd657600080fd5b50565b600081359050610fe881610fc2565b92915050565b60008060006060848603121561100757611006610e3a565b5b600061101586828701610e7a565b935050602061102686828701610fd9565b925050604061103786828701610eb0565b9150509250925092565b60006020828403121561105757611056610e3a565b5b600061106584828501610fd9565b91505092915050565b600082825260208201905092915050565b7f616d6f756e74207a65726f000000000000000000000000000000000000000000600082015250565b60006110b5600b8361106e565b91506110c08261107f565b602082019050919050565b600060208201905081810360008301526110e4816110a8565b9050919050565b6000815190506110fa81610e99565b92915050565b60006020828403121561111657611115610e3a565b5b6000611124848285016110eb565b91505092915050565b7f696e76616c696420726563697069656e74000000000000000000000000000000600082015250565b600061116360118361106e565b915061116e8261112d565b602082019050919050565b6000602082019050818103600083015261119281611156565b9050919050565b7f4e487b7100000000000000000000000000000000000000000000000000000000600052602160045260246000fd5b600481106111d9576111d8611199565b5b50565b60008190506111ea826111c8565b919050565b60006111fa826111dc565b9050919050565b61120a816111ef565b82525050565b60006040820190506112256000830185610f5c565b6112326020830184611201565b9392505050565b60008115159050919050565b61124e81611239565b811461125957600080fd5b50565b60008151905061126b81611245565b92915050565b60006020828403121561128757611286610e3a565b5b60006112958482850161125c565b91505092915050565b7f6e6f7420617574686f72697a6564000000000000000000000000000000000000600082015250565b60006112d4600e8361106e565b91506112df8261129e565b602082019050919050565b60006020820190508181036000830152611303816112c7565b9050919050565b7f4e487b7100000000000000000000000000000000000000000000000000000000600052601160045260246000fd5b600061134482610e8f565b915061134f83610e8f565b925082820261135d81610e8f565b915082820484148315176113745761137361130a565b5b5092915050565b7f4e487b7100000000000000000000000000000000000000000000000000000000600052601260045260246000fd5b60006113b582610e8f565b91506113c083610e8f565b9250826113d0576113cf61137b565b5b828204905092915050565b7f65786365656473207661756c74207769746864726177616c2063617000000000600082015250565b6000611411601c8361106e565b915061141c826113db565b602082019050919050565b6000602082019050818103600083015261144081611404565b9050919050565b7f4f776e61626c653a206e6577206f776e657220697320746865207a65726f206160008201527f6464726573730000000000000000000000000000000000000000000000000000602082015250565b60006114a360268361106e565b91506114ae82611447565b604082019050919050565b600060208201905081810360008301526114d281611496565b9050919050565b7f5265656e7472616e637947756172643a207265656e7472616e742063616c6c00600082015250565b600061150f601f8361106e565b915061151a826114d9565b602082019050919050565b6000602082019050818103600083015261153e81611502565b9050919050565b600060608201905061155a6000830186610f5c565b6115676020830185610f5c565b6115746040830184610f32565b949350505050565b7f4f776e61626c653a2063616c6c6572206973206e6f7420746865206f776e6572600082015250565b60006115b260208361106e565b91506115bd8261157c565b602082019050919050565b600060208201905081810360008301526115e1816115a5565b9050919050565b60006040820190506115fd6000830185610f5c565b61160a6020830184610f32565b9392505050565b7f5361666545524332303a204552433230206f7065726174696f6e20646964206e60008201527f6f74207375636365656400000000000000000000000000000000000000000000602082015250565b600061166d602a8361106e565b915061167882611611565b604082019050919050565b6000602082019050818103600083015261169c81611660565b9050919050565b7f416464726573733a20696e73756666696369656e742062616c616e636520666f60008201527f722063616c6c0000000000000000000000000000000000000000000000000000602082015250565b60006116ff60268361106e565b915061170a826116a3565b604082019050919050565b6000602082019050818103600083015261172e816116f2565b9050919050565b600081519050919050565b600081905092915050565b60005b8381101561176957808201518184015260208101905061174e565b60008484015250505050565b600061178082611735565b61178a8185611740565b935061179a81856020860161174b565b80840191505092915050565b60006117b28284611775565b915081905092915050565b7f416464726573733a2063616c6c20746f206e6f6e2d636f6e7472616374000000600082015250565b60006117f3601d8361106e565b91506117fe826117bd565b602082019050919050565b60006020820190508181036000830152611822816117e6565b9050919050565b600081519050919050565b6000601f19601f8301169050919050565b600061185082611829565b61185a818561106e565b935061186a81856020860161174b565b61187381611834565b840191505092915050565b600060208201905081810360008301526118988184611845565b90509291505056fea2646970667358221220c0372b022bd808bf9b9720c05de03b167e127cd181d5c9ca8e85747643700ae164736f6c63430008110033",
  "linkReferences": {},
  "deployedLinkReferences": {}
}