{"contracts/mocks/MockSwap.sol":{"MockSwap":{"abi":[{"anonymous":false,"inputs":[{"indexed":true,"internalType":"address","name":"caller","type":"address"},{"indexed":false,"internalType":"address","name":"tokenFrom","type":"address"},{"indexed":false,"internalType":"address","name":"tokenTo","type":"address"},{"indexed":false,"internalType":"uint256","name":"amountIn","type":"uint256"},{"indexed":false,"internalType":"uint256","name":"amountOut","type":"uint256"}],"name":"Swapped","type":"event"},{"inputs":[{"internalType":"address","name":"tokenFrom","type":"address"},{"internalType":"address","name":"tokenTo","type":"address"},{"internalType":"uint256","name":"amountIn","type":"uint256"},{"internalType":"address","name":"recipient","type":"address"}],"name":"swapExactIn","outputs":[],"stateMutability":"nonpayable","type":"function"}],"evm":{"bytecode":{"linkReferences":{},"object":"608060405234801561001057600080fd5b506108b9806100206000396000f3fe608060405234801561001057600080fd5b506004361061002b5760003560e01c806381436a5314610030575b600080fd5b61004a6004803603810190610045919061048b565b61004c565b005b600082905061007c82828673ffffffffffffffffffffffffffffffffffffffff166100d79092919063ffffffff16565b3373ffffffffffffffffffffffffffffffffffffffff167f6782190c91d4a7e8ad2a867deed6ec0a970cab8ff137ae2bd4abd92b3810f4d3868686856040516100c89493929190610510565b60405180910390a25050505050565b6101588363a9059cbb60e01b84846040516024016100f6929190610555565b604051602081830303815290604052907bffffffffffffffffffffffffffffffffffffffffffffffffffffffff19166020820180517bffffffffffffffffffffffffffffffffffffffffffffffffffffffff838183161783525050505061015d565b505050565b60006101bf826040518060400160405280602081526020017f5361666545524332303a206c6f772d6c6576656c2063616c6c206661696c65648152508573ffffffffffffffffffffffffffffffffffffffff166102259092919063ffffffff16565b90506000815114806101e15750808060200190518101906101e091906105b6565b5b610220576040517f08c379a000000000000000000000000000000000000000000000000000000000815260040161021790610666565b60405180910390fd5b505050565b6060610234848460008561023d565b90509392505050565b606082471015610282576040517f08c379a0000000000000000000000000000000000000000000000000000000008152600401610279906106f8565b60405180910390fd5b6000808673ffffffffffffffffffffffffffffffffffffffff1685876040516102ab9190610789565b60006040518083038185875af1925050503d80600081146102e8576040519150601f19603f3d011682016040523d82523d6000602084013e6102ed565b606091505b50915091506102fe8783838761030a565b92505050949350505050565b6060831561036c576000835103610364576103248561037f565b610363576040517f08c379a000000000000000000000000000000000000000000000000000000000815260040161035a906107ec565b60405180910390fd5b5b829050610377565b61037683836103a2565b5b949350505050565b6000808273ffffffffffffffffffffffffffffffffffffffff163b119050919050565b6000825111156103b55781518083602001fd5b806040517f08c379a00000000000000000000000000000000000000000000000000000000081526004016103e99190610861565b60405180910390fd5b600080fd5b600073ffffffffffffffffffffffffffffffffffffffff82169050919050565b6000610422826103f7565b9050919050565b61043281610417565b811461043d57600080fd5b50565b60008135905061044f81610429565b92915050565b6000819050919050565b61046881610455565b811461047357600080fd5b50565b6000813590506104858161045f565b92915050565b600080600080608085870312156104a5576104a46103f2565b5b60006104b387828801610440565b94505060206104c487828801610440565b93505060406104d587828801610476565b92505060606104e687828801610440565b91505092959194509250565b6104fb81610417565b82525050565b61050a81610455565b82525050565b600060808201905061052560008301876104f2565b61053260208301866104f2565b61053f6040830185610501565b61054c6060830184610501565b95945050505050565b600060408201905061056a60008301856104f2565b6105776020830184610501565b9392505050565b60008115159050919050565b6105938161057e565b811461059e57600080fd5b50565b6000815190506105b08161058a565b92915050565b6000602082840312156105cc576105cb6103f2565b5b60006105da848285016105a1565b91505092915050565b600082825260208201905092915050565b7f5361666545524332303a204552433230206f7065726174696f6e20646964206e60008201527f6f74207375636365656400000000000000000000000000000000000000000000602082015250565b6000610650602a836105e3565b915061065b826105f4565b604082019050919050565b6000602082019050818103600083015261067f81610643565b9050919050565b7f416464726573733a20696e73756666696369656e742062616c616e636520666f60008201527f722063616c6c0000000000000000000000000000000000000000000000000000602082015250565b60006106e26026836105e3565b91506106ed82610686565b604082019050919050565b60006020820190508181036000830152610711816106d5565b9050919050565b600081519050919050565b600081905092915050565b60005b8381101561074c578082015181840152602081019050610731565b60008484015250505050565b600061076382610718565b61076d8185610723565b935061077d81856020860161072e565b80840191505092915050565b60006107958284610758565b915081905092915050565b7f416464726573733a2063616c6c20746f206e6f6e2d636f6e7472616374000000600082015250565b60006107d6601d836105e3565b91506107e1826107a0565b602082019050919050565b60006020820190508181036000830152610805816107c9565b9050919050565b600081519050919050565b6000601f19601f8301169050919050565b60006108338261080c565b61083d81856105e3565b935061084d81856020860161072e565b61085681610817565b840191505092915050565b6000602082019050818103600083015261087b8184610828565b90509291505056fea26469706673582212200902ddbcdbc122a2436f108453b9f1b9c65fb5063feafe6ba5b07a57d21aae3c64736f6c63430008110033","opcodes":"PUSH1 0x80 PUSH1 0x40 MSTORE CALLVALUE DUP1 ISZERO PUSH2 0x10 JUMPI PUSH1 0x0 DUP1 REVERT JUMPDEST POP PUSH2 0x8B9 DUP1 PUSH2 0x20 PUSH1 0x0 CODECOPY PUSH1 0x0 RETURN INVALID PUSH1 0x80 PUSH1 0x40 MSTORE CALLVALUE DUP1 ISZERO PUSH2 0x10 JUMPI PUSH1 0x0 DUP1 REVERT JUMPDEST POP PUSH1 0x4 CALLDATASIZE LT PUSH2 0x2B JUMPI PUSH1 0x0 CALLDATALOAD PUSH1 0xE0 SHR DUP1 PUSH4 0x81436A53 EQ PUSH2 0x30 JUMPI JUMPDEST PUSH1 0x0 DUP1 REVERT JUMPDEST PUSH2 0x4A PUSH1 0x4 DUP1 CALLDATASIZE SUB DUP2 ADD SWAP1 PUSH2 0x45 SWAP2 SWAP1 PUSH2 0x48B JUMP JUMPDEST PUSH2 0x4C JUMP JUMPDEST STOP JUMPDEST PUSH1 0x0 DUP3 SWAP1 POP PUSH2 0x7C DUP3 DUP3 DUP7 PUSH20 0xFFFFFFFFFFFFFFFFFFFFFFFFFFFFFFFFFFFFFFFF AND PUSH2 0xD7 SWAP1 SWAP3 SWAP2 SWAP1 PUSH4 0xFFFFFFFF AND JUMP JUMPDEST CALLER PUSH20 0xFFFFFFFFFFFFFFFFFFFFFFFFFFFFFFFFFFFFFFFF AND PUSH32 0x6782190C91D4A7E8AD2A867DEED6EC0A970CAB8FF137AE2BD4ABD92B3810F4D3 DUP7 DUP7 DUP7 DUP6 PUSH1 0x40 MLOAD PUSH2 0xC8 SWAP5 SWAP4 SWAP3 SWAP2 SWAP1 PUSH2 0x510 JUMP JUMPDEST PUSH1 0x40 MLOAD DUP1 SWAP2 SUB SWAP1 LOG2 POP POP POP POP POP JUMP JUMPDEST PUSH2 0x158 DUP4 PUSH4 0xA9059CBB PUSH1 0xE0 SHL DUP5 DUP5 PUSH1 0x40 MLOAD PUSH1 0x24 ADD PUSH2 0xF6 SWAP3 SWAP2 SWAP1 PUSH2 0x555 JUMP JUMPDEST PUSH1 0x40 MLOAD PUSH1 0x20 DUP2 DUP4 SUB SUB DUP2 MSTORE SWAP1 PUSH1 0x40 MSTORE SWAP1 PUSH28 0xFFFFFFFFFFFFFFFFFFFFFFFFFFFFFFFFFFFFFFFFFFFFFFFFFFFFFFFF NOT AND PUSH1 0x20 DUP3 ADD DUP1 MLOAD PUSH28 0xFFFFFFFFFFFFFFFFFFFFFFFFFFFFFFFFFFFFFFFFFFFFFFFFFFFFFFFF DUP4 DUP2 DUP4 AND OR DUP4 MSTORE POP POP POP POP PUSH2 0x15D JUMP JUMPDEST POP POP POP JUMP JUMPDEST PUSH1 0x0 PUSH2 0x1BF DUP3 PUSH1 0x40 MLOAD DUP1 PUSH1 0x40 ADD PUSH1 0x40 MSTORE DUP1 PUSH1 0x20 DUP2 MSTORE PUSH1 0x20 ADD PUSH32 0x5361666545524332303A206C6F772D6C6576656C2063616C6C206661696C6564 DUP2 MSTORE POP DUP6 PUSH20 0xFFFFFFFFFFFFFFFFFFFFFFFFFFFFFFFFFFFFFFFF AND PUSH2 0x225 SWAP1 SWAP3 SWAP2 SWAP1 PUSH4 0xFFFFFFFF AND JUMP JUMPDEST SWAP1 POP PUSH1 0x0 DUP2 MLOAD EQ DUP1 PUSH2 0x1E1 JUMPI POP DUP1 DUP1 PUSH1 0x20 ADD SWAP1 MLOAD DUP2 ADD SWAP1 PUSH2 0x1E0 SWAP2 SWAP1 PUSH2 0x5B6 JUMP JUMPDEST JUMPDEST PUSH2 0x220 JUMPI PUSH1 0x40 MLOAD PUSH32 0x8C379A000000000000000000000000000000000000000000000000000000000 DUP2 MSTORE PUSH1 0x4 ADD PUSH2 0x217 SWAP1 PUSH2 0x666 JUMP JUMPDEST PUSH1 0x40 MLOAD DUP1 SWAP2 SUB SWAP1 REVERT JUMPDEST POP POP POP JUMP JUMPDEST PUSH1 0x60 PUSH2 0x234 DUP5 DUP5 PUSH1 0x0 DUP6 PUSH2 0x23D JUMP JUMPDEST SWAP1 POP SWAP4 SWAP3 POP POP POP JUMP JUMPDEST PUSH1 0x60 DUP3 SELFBALANCE LT ISZERO PUSH2 0x282 JUMPI PUSH1 0x40 MLOAD PUSH32 0x8C379A000000000000000000000000000000000000000000000000000000000 DUP2 MSTORE PUSH1 0x4 ADD PUSH2 0x279 SWAP1 PUSH2 0x6F8 JUMP JUMPDEST PUSH1 0x40 MLOAD DUP1 SWAP2 SUB SWAP1 REVERT JUMPDEST PUSH1 0x0 DUP1 DUP7 PUSH20 0xFFFFFFFFFFFFFFFFFFFFFFFFFFFFFFFFFFFFFFFF AND DUP6 DUP8 PUSH1 0x40 MLOAD PUSH2 0x2AB SWAP2 SWAP1 PUSH2 0x789 JUMP JUMPDEST PUSH1 0x0 PUSH1 0x40 MLOAD DUP1 DUP4 SUB DUP2 DUP6 DUP8 GAS CALL SWAP3 POP POP POP RETURNDATASIZE DUP1 PUSH1 0x0 DUP2 EQ PUSH2 0x2E8 JUMPI PUSH1 0x40 MLOAD SWAP2 POP PUSH1 0x1F NOT PUSH1 0x3F RETURNDATASIZE ADD AND DUP3 ADD PUSH1 0x40 MSTORE RETURNDATASIZE DUP3 MSTORE RETURNDATASIZE PUSH1 0x0 PUSH1 0x20 DUP5 ADD RETURNDATACOPY PUSH2 0x2ED JUMP JUMPDEST PUSH1 0x60 SWAP2 POP JUMPDEST POP SWAP2 POP SWAP2 POP PUSH2 0x2FE DUP8 DUP4 DUP4 DUP8 PUSH2 0x30A JUMP JUMPDEST SWAP3 POP POP POP SWAP5 SWAP4 POP POP POP POP JUMP JUMPDEST PUSH1 0x60 DUP4 ISZERO PUSH2 0x36C JUMPI PUSH1 0x0 DUP4 MLOAD SUB PUSH2 0x364 JUMPI PUSH2 0x324 DUP6 PUSH2 0x37F JUMP JUMPDEST PUSH2 0x363 JUMPI PUSH1 0x40 MLOAD PUSH32 0x8C379A000000000000000000000000000000000000000000000000000000000 DUP2 MSTORE PUSH1 0x4 ADD PUSH2 0x35A SWAP1 PUSH2 0x7EC JUMP JUMPDEST PUSH1 0x40 MLOAD DUP1 SWAP2 SUB SWAP1 REVERT JUMPDEST JUMPDEST DUP3 SWAP1 POP PUSH2 0x377 JUMP JUMPDEST PUSH2 0x376 DUP4 DUP4 PUSH2 0x3A2 JUMP JUMPDEST JUMPDEST SWAP5 SWAP4 POP POP POP POP JUMP JUMPDEST PUSH1 0x0 DUP1 DUP3 PUSH20 0xFFFFFFFFFFFFFFFFFFFFFFFFFFFFFFFFFFFFFFFF AND EXTCODESIZE GT SWAP1 POP SWAP2 SWAP1 POP JUMP JUMPDEST PUSH1 0x0 DUP3 MLOAD GT ISZERO PUSH2 0x3B5 JUMPI DUP2 MLOAD DUP1 DUP4 PUSH1 0x20 ADD REVERT JUMPDEST DUP1 PUSH1 0x40 MLOAD PUSH32 0x8C379A000000000000000000000000000000000000000000000000000000000 DUP2 MSTORE PUSH1 0x4 ADD PUSH2 0x3E9 SWAP2 SWAP1 PUSH2 0x861 JUMP JUMPDEST PUSH1 0x40 MLOAD DUP1 SWAP2 SUB SWAP1 REVERT JUMPDEST PUSH1 0x0 DUP1 REVERT JUMPDEST PUSH1 0x0 PUSH20 0xFFFFFFFFFFFFFFFFFFFFFFFFFFFFFFFFFFFFFFFF DUP3 AND SWAP1 POP SWAP2 SWAP1 POP JUMP JUMPDEST PUSH1 0x0 PUSH2 0x422 DUP3 PUSH2 0x3F7 JUMP JUMPDEST SWAP1 POP SWAP2 SWAP1 POP JUMP JUMPDEST PUSH2 0x432 DUP2 PUSH2 0x417 JUMP JUMPDEST DUP2 EQ PUSH2 0x43D JUMPI PUSH1 0x0 DUP1 REVERT JUMPDEST POP JUMP JUMPDEST PUSH1 0x0 DUP2 CALLDATALOAD SWAP1 POP PUSH2 0x44F DUP2 PUSH2 0x429 JUMP JUMPDEST SWAP3 SWAP2 POP POP JUMP JUMPDEST PUSH1 0x0 DUP2 SWAP1 POP SWAP2 SWAP1 POP JUMP JUMPDEST PUSH2 0x468 DUP2 PUSH2 0x455 JUMP JUMPDEST DUP2 EQ PUSH2 0x473 JUMPI PUSH1 0x0 DUP1 REVERT JUMPDEST POP JUMP JUMPDEST PUSH1 0x0 DUP2 CALLDATALOAD SWAP1 POP PUSH2 0x485 DUP2 PUSH2 0x45F JUMP JUMPDEST SWAP3 SWAP2 POP POP JUMP JUMPDEST PUSH1 0x0 DUP1 PUSH1 0x0 DUP1 PUSH1 0x80 DUP6 DUP8 SUB SLT ISZERO PUSH2 0x4A5 JUMPI PUSH2 0x4A4 PUSH2 0x3F2 JUMP JUMPDEST JUMPDEST PUSH1 0x0 PUSH2 0x4B3 DUP8 DUP3 DUP9 ADD PUSH2 0x440 JUMP JUMPDEST SWAP5 POP POP PUSH1 0x20 PUSH2 0x4C4 DUP8 DUP3 DUP9 ADD PUSH2 0x440 JUMP JUMPDEST SWAP4 POP POP PUSH1 0x40 PUSH2 0x4D5 DUP8 DUP3 DUP9 ADD PUSH2 0x476 JUMP JUMPDEST SWAP3 POP POP PUSH1 0x60 PUSH2 0x4E6 DUP8 DUP3 DUP9 ADD PUSH2 0x440 JUMP JUMPDEST SWAP2 POP POP SWAP3 SWAP6 SWAP2 SWAP5 POP SWAP3 POP JUMP JUMPDEST PUSH2 0x4FB DUP2 PUSH2 0x417 JUMP JUMPDEST DUP3 MSTORE POP POP JUMP JUMPDEST PUSH2 0x50A DUP2 PUSH2 0x455 JUMP JUMPDEST DUP3 MSTORE POP POP JUMP JUMPDEST PUSH1 0x0 PUSH1 0x80 DUP3 ADD SWAP1 POP PUSH2 0x525 PUSH1 0x0 DUP4 ADD DUP8 PUSH2 0x4F2 JUMP JUMPDEST PUSH2 0x532 PUSH1 0x20 DUP4 ADD DUP7 PUSH2 0x4F2 JUMP JUMPDEST PUSH2 0x53F PUSH1 0x40 DUP4 ADD DUP6 PUSH2 0x501 JUMP JUMPDEST PUSH2 0x54C PUSH1 0x60 DUP4 ADD DUP5 PUSH2 0x501 JUMP JUMPDEST SWAP6 SWAP5 POP POP POP POP POP JUMP JUMPDEST PUSH1 0x0 PUSH1 0x40 DUP3 ADD SWAP1 POP PUSH2 0x56A PUSH1 0x0 DUP4 ADD DUP6 PUSH2 0x4F2 JUMP JUMPDEST PUSH2 0x577 PUSH1 0x20 DUP4 ADD DUP5 PUSH2 0x501 JUMP JUMPDEST SWAP4 SWAP3 POP POP POP JUMP JUMPDEST PUSH1 0x0 DUP2 ISZERO ISZERO SWAP1 POP SWAP2 SWAP1 POP JUMP JUMPDEST PUSH2 0x593 DUP2 PUSH2 0x57E JUMP JUMPDEST DUP2 EQ PUSH2 0x59E JUMPI PUSH1 0x0 DUP1 REVERT JUMPDEST POP JUMP JUMPDEST PUSH1 0x0 DUP2 MLOAD SWAP1 POP PUSH2 0x5B0 DUP2 PUSH2 0x58A JUMP JUMPDEST SWAP3 SWAP2 POP POP JUMP JUMPDEST PUSH1 0x0 PUSH1 0x20 DUP3 DUP5 SUB SLT ISZERO PUSH2 0x5CC JUMPI PUSH2 0x5CB PUSH2 0x3F2 JUMP JUMPDEST JUMPDEST PUSH1 0x0 PUSH2 0x5DA DUP5 DUP3 DUP6 ADD PUSH2 0x5A1 JUMP JUMPDEST SWAP2 POP POP SWAP3 SWAP2 POP POP JUMP JUMPDEST PUSH1 0x0 DUP3 DUP3 MSTORE PUSH1 0x20 DUP3 ADD SWAP1 POP SWAP3 SWAP2 POP POP JUMP JUMPDEST PUSH32 0x5361666545524332303A204552433230206F7065726174696F6E20646964206E PUSH1 0x0 DUP3 ADD MSTORE PUSH32 0x6F74207375636365656400000000000000000000000000000000000000000000 PUSH1 0x20 DUP3 ADD MSTORE POP JUMP JUMPDEST PUSH1 0x0 PUSH2 0x650 PUSH1 0x2A DUP4 PUSH2 0x5E3 JUMP JUMPDEST SWAP2 POP PUSH2 0x65B DUP3 PUSH2 0x5F4 JUMP JUMPDEST PUSH1 0x40 DUP3 ADD SWAP1 POP SWAP2 SWAP1 POP JUMP JUMPDEST PUSH1 0x0 PUSH1 0x20 DUP3 ADD SWAP1 POP DUP2 DUP2 SUB PUSH1 0x0 DUP4 ADD MSTORE PUSH2 0x67F DUP2 PUSH2 0x643 JUMP JUMPDEST SWAP1 POP SWAP2 SWAP1 POP JUMP JUMPDEST PUSH32 0x416464726573733A20696E73756666696369656E742062616C616E636520666F PUSH1 0x0 DUP3 ADD MSTORE PUSH32 0x722063616C6C0000000000000000000000000000000000000000000000000000 PUSH1 0x20 DUP3 ADD MSTORE POP JUMP JUMPDEST PUSH1 0x0 PUSH2 0x6E2 PUSH1 0x26 DUP4 PUSH2 0x5E3 JUMP JUMPDEST SWAP2 POP PUSH2 0x6ED DUP3 PUSH2 0x686 JUMP JUMPDEST PUSH1 0x40 DUP3 ADD SWAP1 POP SWAP2 SWAP1 POP JUMP JUMPDEST PUSH1 0x0 PUSH1 0x20 DUP3 ADD SWAP1 POP DUP2 DUP2 SUB PUSH1 0x0 DUP4 ADD MSTORE PUSH2 0x711 DUP2 PUSH2 0x6D5 JUMP JUMPDEST SWAP1 POP SWAP2 SWAP1 POP JUMP JUMPDEST PUSH1 0x0 DUP2 MLOAD SWAP1 POP SWAP2 SWAP1 POP JUMP JUMPDEST PUSH1 0x0 DUP2 SWAP1 POP SWAP3 SWAP2 POP POP JUMP JUMPDEST PUSH1 0x0 JUMPDEST DUP4 DUP2 LT ISZERO PUSH2 0x74C JUMPI DUP1 DUP3 ADD MLOAD DUP2 DUP5 ADD MSTORE PUSH1 0x20 DUP2 ADD SWAP1 POP PUSH2 0x731 JUMP JUMPDEST PUSH1 0x0 DUP5 DUP5 ADD MSTORE POP POP POP POP JUMP JUMPDEST PUSH1 0x0 PUSH2 0x763 DUP3 PUSH2 0x718 JUMP JUMPDEST PUSH2 0x76D DUP2 DUP6 PUSH2 0x723 JUMP JUMPDEST SWAP4 POP PUSH2 0x77D DUP2 DUP6 PUSH1 0x20 DUP7 ADD PUSH2 0x72E JUMP JUMPDEST DUP1 DUP5 ADD SWAP2 POP POP SWAP3 SWAP2 POP POP JUMP JUMPDEST PUSH1 0x0 PUSH2 0x795 DUP3 DUP5 PUSH2 0x758 JUMP JUMPDEST SWAP2 POP DUP2 SWAP1 POP SWAP3 SWAP2 POP POP JUMP JUMPDEST PUSH32 0x416464726573733A2063616C6C20746F206E6F6E2D636F6E7472616374000000 PUSH1 0x0 DUP3 ADD MSTORE POP JUMP JUMPDEST PUSH1 0x0 PUSH2 0x7D6 PUSH1 0x1D DUP4 PUSH2 0x5E3 JUMP JUMPDEST SWAP2 POP PUSH2 0x7E1 DUP3 PUSH2 0x7A0 JUMP JUMPDEST PUSH1 0x20 DUP3 ADD SWAP1 POP SWAP2 SWAP1 POP JUMP JUMPDEST PUSH1 0x0 PUSH1 0x20 DUP3 ADD SWAP1 POP DUP2 DUP2 SUB PUSH1 0x0 DUP4 ADD MSTORE PUSH2 0x805 DUP2 PUSH2 0x7C9 JUMP JUMPDEST SWAP1 POP SWAP2 SWAP1 POP JUMP JUMPDEST PUSH1 0x0 DUP2 MLOAD SWAP1 POP SWAP2 SWAP1 POP JUMP JUMPDEST PUSH1 0x0 PUSH1 0x1F NOT PUSH1 0x1F DUP4 ADD AND SWAP1 POP SWAP2 SWAP1 POP JUMP JUMPDEST PUSH1 0x0 PUSH2 0x833 DUP3 PUSH2 0x80C JUMP JUMPDEST PUSH2 0x83D DUP2 DUP6 PUSH2 0x5E3 JUMP JUMPDEST SWAP4 POP PUSH2 0x84D DUP2 DUP6 PUSH1 0x20 DUP7 ADD PUSH2 0x72E JUMP JUMPDEST PUSH2 0x856 DUP2 PUSH2 0x817 JUMP JUMPDEST DUP5 ADD SWAP2 POP POP SWAP3 SWAP2 POP POP JUMP JUMPDEST PUSH1 0x0 PUSH1 0x20 DUP3 ADD SWAP1 POP DUP2 DUP2 SUB PUSH1 0x0 DUP4 ADD MSTORE PUSH2 0x87B DUP2 DUP5 PUSH2 0x828 JUMP JUMPDEST SWAP1 POP SWAP3 SWAP2 POP POP JUMP INVALID LOG2 PUSH5 0x6970667358 0x22 SLT KECCAK256 MULMOD MUL 0xDD 0xBC 0xDB 0xC1 0x22 LOG2 NUMBER PUSH16 0x108453B9F1B9C65FB5063FEAFE6BA5B0 PUSH27 0x57D21AAE3C64736F6C634300081100330000000000000000000000 "},"methodIdentifiers":{"swapExactIn(address,address,uint256,address)":"81436a53"}}}}}