{"contracts/core/RiskParameters.sol":{"RiskParameters":{"abi":[{"inputs":[{"internalType":"uint256","name":"_maxRebalanceBps","type":"uint256"},{"internalType":"uint256","name":"_volatilityThresholdBps","type":"uint256"},{"internalType":"uint256","name":"_minRunwayMonths","type":"uint256"}],"stateMutability":"nonpayable","type":"constructor"},{"anonymous":false,"inputs":[{"indexed":true,"internalType":"address","name":"previousOwner","type":"address"},{"indexed":true,"internalType":"address","name":"newOwner","type":"address"}],"name":"OwnershipTransferred","type":"event"},{"anonymous":false,"inputs":[{"indexed":false,"internalType":"uint256","name":"maxRebalanceBps","type":"uint256"},{"indexed":false,"internalType":"uint256","name":"volatilityThresholdBps","type":"uint256"},{"indexed":false,"internalType":"uint256","name":"minRunwayMonths","type":"uint256"}],"name":"ParametersUpdated","type":"event"},{"inputs":[],"name":"maxRebalanceBps","outputs":[{"internalType":"uint256","name":"","type":"uint256"}],"stateMutability":"view","type":"function"},{"inputs":[],"name":"minRunwayMonths","outputs":[{"internalType":"uint256","name":"","type":"uint256"}],"stateMutability":"view","type":"function"},{"inputs":[],"name":"owner","outputs":[{"internalType":"address","name":"","type":"address"}],"stateMutability":"view","type":"function"},{"inputs":[],"name":"renounceOwnership","outputs":[],"stateMutability":"nonpayable","type":"function"},{"inputs":[{"internalType":"address","name":"newOwner","type":"address"}],"name":"transferOwnership","outputs":[],"stateMutability":"nonpayable","type":"function"},{"inputs":[{"internalType":"uint256","name":"_maxRebalanceBps","type":"uint256"},{"internalType":"uint256","name":"_volatilityThresholdBps","type":"uint256"},{"internalType":"uint256","name":"_minRunwayMonths","type":"uint256"}],"name":"updateParameters","outputs":[],"stateMutability":"nonpayable","type":"function"},{"inputs":[],"name":"volatilityThresholdBps","outputs":[{"internalType":"uint256","name":"","type":"uint256"}],"stateMutability":"view","type":"function"}],"evm":{"bytecode":{"linkReferences":{},"object":"608060405234801561001057600080fd5b5060405161087238038061087283398181016040528101906100329190610172565b61004e61004361006b60201b60201c565b61007360201b60201c565b8260018190555081600281905550806003819055505050506101c5565b600033905090565b60008060009054906101000a900473ffffffffffffffffffffffffffffffffffffffff169050816000806101000a81548173ffffffffffffffffffffffffffffffffffffffff021916908373ffffffffffffffffffffffffffffffffffffffff1602179055508173ffffffffffffffffffffffffffffffffffffffff168173ffffffffffffffffffffffffffffffffffffffff167f8be0079c531659141344cd1fd0a4f28419497f9722a3daafe3b4186f6b6457e060405160405180910390a35050565b600080fd5b6000819050919050565b61014f8161013c565b811461015a57600080fd5b50565b60008151905061016c81610146565b92915050565b60008060006060848603121561018b5761018a610137565b5b60006101998682870161015d565b93505060206101aa8682870161015d565b92505060406101bb8682870161015d565b9150509250925092565b61069e806101d46000396000f3fe608060405234801561001057600080fd5b506004361061007d5760003560e01c806396c31bc11161005b57806396c31bc1146100c8578063cef0ed23146100e6578063f2fde38b14610104578063f76d50ad146101205761007d565b806371084cda14610082578063715018a6146100a05780638da5cb5b146100aa575b600080fd5b61008a61013c565b60405161009791906103ce565b60405180910390f35b6100a8610142565b005b6100b2610156565b6040516100bf919061042a565b60405180910390f35b6100d061017f565b6040516100dd91906103ce565b60405180910390f35b6100ee610185565b6040516100fb91906103ce565b60405180910390f35b61011e60048036038101906101199190610476565b61018b565b005b61013a600480360381019061013591906104cf565b61020e565b005b60025481565b61014a61026b565b61015460006102e9565b565b60008060009054906101000a900473ffffffffffffffffffffffffffffffffffffffff16905090565b60035481565b60015481565b61019361026b565b600073ffffffffffffffffffffffffffffffffffffffff168173ffffffffffffffffffffffffffffffffffffffff1603610202576040517f08c379a00000000000000000000000000000000000000000000000000000000081526004016101f9906105a5565b60405180910390fd5b61020b816102e9565b50565b61021661026b565b8260018190555081600281905550806003819055507f4dd522c050b46ef5e852ea87e7cd136b049dcb37740ad38386fbbb5cd30aa92483838360405161025e939291906105c5565b60405180910390a1505050565b6102736103ad565b73ffffffffffffffffffffffffffffffffffffffff16610291610156565b73ffffffffffffffffffffffffffffffffffffffff16146102e7576040517f08c379a00000000000000000000000000000000000000000000000000000000081526004016102de90610648565b60405180910390fd5b565b60008060009054906101000a900473ffffffffffffffffffffffffffffffffffffffff169050816000806101000a81548173ffffffffffffffffffffffffffffffffffffffff021916908373ffffffffffffffffffffffffffffffffffffffff1602179055508173ffffffffffffffffffffffffffffffffffffffff168173ffffffffffffffffffffffffffffffffffffffff167f8be0079c531659141344cd1fd0a4f28419497f9722a3daafe3b4186f6b6457e060405160405180910390a35050565b600033905090565b6000819050919050565b6103c8816103b5565b82525050565b60006020820190506103e360008301846103bf565b92915050565b600073ffffffffffffffffffffffffffffffffffffffff82169050919050565b6000610414826103e9565b9050919050565b61042481610409565b82525050565b600060208201905061043f600083018461041b565b92915050565b600080fd5b61045381610409565b811461045e57600080fd5b50565b6000813590506104708161044a565b92915050565b60006020828403121561048c5761048b610445565b5b600061049a84828501610461565b91505092915050565b6104ac816103b5565b81146104b757600080fd5b50565b6000813590506104c9816104a3565b92915050565b6000806000606084860312156104e8576104e7610445565b5b60006104f6868287016104ba565b9350506020610507868287016104ba565b9250506040610518868287016104ba565b9150509250925092565b600082825260208201905092915050565b7f4f776e61626c653a206e6577206f776e657220697320746865207a65726f206160008201527f6464726573730000000000000000000000000000000000000000000000000000602082015250565b600061058f602683610522565b915061059a82610533565b604082019050919050565b600060208201905081810360008301526105be81610582565b9050919050565b60006060820190506105da60008301866103bf565b6105e760208301856103bf565b6105f460408301846103bf565b949350505050565b7f4f776e61626c653a2063616c6c6572206973206e6f7420746865206f776e6572600082015250565b6000610632602083610522565b915061063d826105fc565b602082019050919050565b6000602082019050818103600083015261066181610625565b905091905056fea26469706673582212202e4be0cff471481175b2d3e3fd997f62ee6f0246e1c0ea1057037687d9df2b7e64736f6c63430008110033","opcodes":"PUSH1 0x80 PUSH1 0x40 MSTORE CALLVALUE DUP1 ISZERO PUSH2 0x10 JUMPI PUSH1 0x0 DUP1 REVERT JUMPDEST POP PUSH1 0x40 MLOAD PUSH2 0x872 CODESIZE SUB DUP1 PUSH2 0x872 DUP4 CODECOPY DUP2 DUP2 ADD PUSH1 0x40 MSTORE DUP2 ADD SWAP1 PUSH2 0x32 SWAP2 SWAP1 PUSH2 0x172 JUMP JUMPDEST PUSH2 0x4E PUSH2 0x43 PUSH2 0x6B PUSH1 0x20 SHL PUSH1 0x20 SHR JUMP JUMPDEST PUSH2 0x73 PUSH1 0x20 SHL PUSH1 0x20 SHR JUMP JUMPDEST DUP3 PUSH1 0x1 DUP2 SWAP1 SSTORE POP DUP2 PUSH1 0x2 DUP2 SWAP1 SSTORE POP DUP1 PUSH1 0x3 DUP2 SWAP1 SSTORE POP POP POP POP PUSH2 0x1C5 JUMP JUMPDEST PUSH1 0x0 CALLER SWAP1 POP SWAP1 JUMP JUMPDEST PUSH1 0x0 DUP1 PUSH1 0x0 SWAP1 SLOAD SWAP1 PUSH2 0x100 EXP SWAP1 DIV PUSH20 0xFFFFFFFFFFFFFFFFFFFFFFFFFFFFFFFFFFFFFFFF AND SWAP1 POP DUP2 PUSH1 0x0 DUP1 PUSH2 0x100 EXP DUP2 SLOAD DUP2 PUSH20 0xFFFFFFFFFFFFFFFFFFFFFFFFFFFFFFFFFFFFFFFF MUL NOT AND SWAP1 DUP4 PUSH20 0xFFFFFFFFFFFFFFFFFFFFFFFFFFFFFFFFFFFFFFFF AND MUL OR SWAP1 SSTORE POP DUP2 PUSH20 0xFFFFFFFFFFFFFFFFFFFFFFFFFFFFFFFFFFFFFFFF AND DUP2 PUSH20 0xFFFFFFFFFFFFFFFFFFFFFFFFFFFFFFFFFFFFFFFF AND PUSH32 0x8BE0079C531659141344CD1FD0A4F28419497F9722A3DAAFE3B4186F6B6457E0 PUSH1 0x40 MLOAD PUSH1 0x40 MLOAD DUP1 SWAP2 SUB SWAP1 LOG3 POP POP JUMP JUMPDEST PUSH1 0x0 DUP1 REVERT JUMPDEST PUSH1 0x0 DUP2 SWAP1 POP SWAP2 SWAP1 POP JUMP JUMPDEST PUSH2 0x14F DUP2 PUSH2 0x13C JUMP JUMPDEST DUP2 EQ PUSH2 0x15A JUMPI PUSH1 0x0 DUP1 REVERT JUMPDEST POP JUMP JUMPDEST PUSH1 0x0 DUP2 MLOAD SWAP1 POP PUSH2 0x16C DUP2 PUSH2 0x146 JUMP JUMPDEST SWAP3 SWAP2 POP POP JUMP JUMPDEST PUSH1 0x0 DUP1 PUSH1 0x0 PUSH1 0x60 DUP5 DUP7 SUB SLT ISZERO PUSH2 0x18B JUMPI PUSH2 0x18A PUSH2 0x137 JUMP JUMPDEST JUMPDEST PUSH1 0x0 PUSH2 0x199 DUP7 DUP3 DUP8 ADD PUSH2 0x15D JUMP JUMPDEST SWAP4 POP POP PUSH1 0x20 PUSH2 0x1AA DUP7 DUP3 DUP8 ADD PUSH2 0x15D JUMP JUMPDEST SWAP3 POP POP PUSH1 0x40 PUSH2 0x1BB DUP7 DUP3 DUP8 ADD PUSH2 0x15D JUMP JUMPDEST SWAP2 POP POP SWAP3 POP SWAP3 POP SWAP3 JUMP JUMPDEST PUSH2 0x69E DUP1 PUSH2 0x1D4 PUSH1 0x0 CODECOPY PUSH1 0x0 RETURN INVALID PUSH1 0x80 PUSH1 0x40 MSTORE CALLVALUE DUP1 ISZERO PUSH2 0x10 JUMPI PUSH1 0x0 DUP1 REVERT JUMPDEST POP PUSH1 0x4 CALLDATASIZE LT PUSH2 0x7D JUMPI PUSH1 0x0 CALLDATALOAD PUSH1 0xE0 SHR DUP1 PUSH4 0x96C31BC1 GT PUSH2 0x5B JUMPI DUP1 PUSH4 0x96C31BC1 EQ PUSH2 0xC8 JUMPI DUP1 PUSH4 0xCEF0ED23 EQ PUSH2 0xE6 JUMPI DUP1 PUSH4 0xF2FDE38B EQ PUSH2 0x104 JUMPI DUP1 PUSH4 0xF76D50AD EQ PUSH2 0x120 JUMPI PUSH2 0x7D JUMP JUMPDEST DUP1 PUSH4 0x71084CDA EQ PUSH2 0x82 JUMPI DUP1 PUSH4 0x715018A6 EQ PUSH2 0xA0 JUMPI DUP1 PUSH4 0x8DA5CB5B EQ PUSH2 0xAA JUMPI JUMPDEST PUSH1 0x0 DUP1 REVERT JUMPDEST PUSH2 0x8A PUSH2 0x13C JUMP JUMPDEST PUSH1 0x40 MLOAD PUSH2 0x97 SWAP2 SWAP1 PUSH2 0x3CE JUMP JUMPDEST PUSH1 0x40 MLOAD DUP1 SWAP2 SUB SWAP1 RETURN JUMPDEST PUSH2 0xA8 PUSH2 0x142 JUMP JUMPDEST STOP JUMPDEST PUSH2 0xB2 PUSH2 0x156 JUMP JUMPDEST PUSH1 0x40 MLOAD PUSH2 0xBF SWAP2 SWAP1 PUSH2 0x42A JUMP JUMPDEST PUSH1 0x40 MLOAD DUP1 SWAP2 SUB SWAP1 RETURN JUMPDEST PUSH2 0xD0 PUSH2 0x17F JUMP JUMPDEST PUSH1 0x40 MLOAD PUSH2 0xDD SWAP2 SWAP1 PUSH2 0x3CE JUMP JUMPDEST PUSH1 0x40 MLOAD DUP1 SWAP2 SUB SWAP1 RETURN JUMPDEST PUSH2 0xEE PUSH2 0x185 JUMP JUMPDEST PUSH1 0x40 MLOAD PUSH2 0xFB SWAP2 SWAP1 PUSH2 0x3CE JUMP JUMPDEST PUSH1 0x40 MLOAD DUP1 SWAP2 SUB SWAP1 RETURN JUMPDEST PUSH2 0x11E PUSH1 0x4 DUP1 CALLDATASIZE SUB DUP2 ADD SWAP1 PUSH2 0x119 SWAP2 SWAP1 PUSH2 0x476 JUMP JUMPDEST PUSH2 0x18B JUMP JUMPDEST STOP JUMPDEST PUSH2 0x13A PUSH1 0x4 DUP1 CALLDATASIZE SUB DUP2 ADD SWAP1 PUSH2 0x135 SWAP2 SWAP1 PUSH2 0x4CF JUMP JUMPDEST PUSH2 0x20E JUMP JUMPDEST STOP JUMPDEST PUSH1 0x2 SLOAD DUP2 JUMP JUMPDEST PUSH2 0x14A PUSH2 0x26B JUMP JUMPDEST PUSH2 0x154 PUSH1 0x0 PUSH2 0x2E9 JUMP JUMPDEST JUMP JUMPDEST PUSH1 0x0 DUP1 PUSH1 0x0 SWAP1 SLOAD SWAP1 PUSH2 0x100 EXP SWAP1 DIV PUSH20 0xFFFFFFFFFFFFFFFFFFFFFFFFFFFFFFFFFFFFFFFF AND SWAP1 POP SWAP1 JUMP JUMPDEST PUSH1 0x3 SLOAD DUP2 JUMP JUMPDEST PUSH1 0x1 SLOAD DUP2 JUMP JUMPDEST PUSH2 0x193 PUSH2 0x26B JUMP JUMPDEST PUSH1 0x0 PUSH20 0xFFFFFFFFFFFFFFFFFFFFFFFFFFFFFFFFFFFFFFFF AND DUP2 PUSH20 0xFFFFFFFFFFFFFFFFFFFFFFFFFFFFFFFFFFFFFFFF AND SUB PUSH2 0x202 JUMPI PUSH1 0x40 MLOAD PUSH32 0x8C379A000000000000000000000000000000000000000000000000000000000 DUP2 MSTORE PUSH1 0x4 ADD PUSH2 0x1F9 SWAP1 PUSH2 0x5A5 JUMP JUMPDEST PUSH1 0x40 MLOAD DUP1 SWAP2 SUB SWAP1 REVERT JUMPDEST PUSH2 0x20B DUP2 PUSH2 0x2E9 JUMP JUMPDEST POP JUMP JUMPDEST PUSH2 0x216 PUSH2 0x26B JUMP JUMPDEST DUP3 PUSH1 0x1 DUP2 SWAP1 SSTORE POP DUP2 PUSH1 0x2 DUP2 SWAP1 SSTORE POP DUP1 PUSH1 0x3 DUP2 SWAP1 SSTORE POP PUSH32 0x4DD522C050B46EF5E852EA87E7CD136B049DCB37740AD38386FBBB5CD30AA924 DUP4 DUP4 DUP4 PUSH1 0x40 MLOAD PUSH2 0x25E SWAP4 SWAP3 SWAP2 SWAP1 PUSH2 0x5C5 JUMP JUMPDEST PUSH1 0x40 MLOAD DUP1 SWAP2 SUB SWAP1 LOG1 POP POP POP JUMP JUMPDEST PUSH2 0x273 PUSH2 0x3AD JUMP JUMPDEST PUSH20 0xFFFFFFFFFFFFFFFFFFFFFFFFFFFFFFFFFFFFFFFF AND PUSH2 0x291 PUSH2 0x156 JUMP JUMPDEST PUSH20 0xFFFFFFFFFFFFFFFFFFFFFFFFFFFFFFFFFFFFFFFF AND EQ PUSH2 0x2E7 JUMPI PUSH1 0x40 MLOAD PUSH32 0x8C379A000000000000000000000000000000000000000000000000000000000 DUP2 MSTORE PUSH1 0x4 ADD PUSH2 0x2DE SWAP1 PUSH2 0x648 JUMP JUMPDEST PUSH1 0x40 MLOAD DUP1 SWAP2 SUB SWAP1 REVERT JUMPDEST JUMP JUMPDEST PUSH1 0x0 DUP1 PUSH1 0x0 SWAP1 SLOAD SWAP1 PUSH2 0x100 EXP SWAP1 DIV PUSH20 0xFFFFFFFFFFFFFFFFFFFFFFFFFFFFFFFFFFFFFFFF AND SWAP1 POP DUP2 PUSH1 0x0 DUP1 PUSH2 0x100 EXP DUP2 SLOAD DUP2 PUSH20 0xFFFFFFFFFFFFFFFFFFFFFFFFFFFFFFFFFFFFFFFF MUL NOT AND SWAP1 DUP4 PUSH20 0xFFFFFFFFFFFFFFFFFFFFFFFFFFFFFFFFFFFFFFFF AND MUL OR SWAP1 SSTORE POP DUP2 PUSH20 0xFFFFFFFFFFFFFFFFFFFFFFFFFFFFFFFFFFFFFFFF AND DUP2 PUSH20 0xFFFFFFFFFFFFFFFFFFFFFFFFFFFFFFFFFFFFFFFF AND PUSH32 0x8BE0079C531659141344CD1FD0A4F28419497F9722A3DAAFE3B4186F6B6457E0 PUSH1 0x40 MLOAD PUSH1 0x40 MLOAD DUP1 SWAP2 SUB SWAP1 LOG3 POP POP JUMP JUMPDEST PUSH1 0x0 CALLER SWAP1 POP SWAP1 JUMP JUMPDEST PUSH1 0x0 DUP2 SWAP1 POP SWAP2 SWAP1 POP JUMP JUMPDEST PUSH2 0x3C8 DUP2 PUSH2 0x3B5 JUMP JUMPDEST DUP3 MSTORE POP POP JUMP JUMPDEST PUSH1 0x0 PUSH1 0x20 DUP3 ADD SWAP1 POP PUSH2 0x3E3 PUSH1 0x0 DUP4 ADD DUP5 PUSH2 0x3BF JUMP JUMPDEST SWAP3 SWAP2 POP POP JUMP JUMPDEST PUSH1 0x0 PUSH20 0xFFFFFFFFFFFFFFFFFFFFFFFFFFFFFFFFFFFFFFFF DUP3 AND SWAP1 POP SWAP2 SWAP1 POP JUMP JUMPDEST PUSH1 0x0 PUSH2 0x414 DUP3 PUSH2 0x3E9 JUMP JUMPDEST SWAP1 POP SWAP2 SWAP1 POP JUMP JUMPDEST PUSH2 0x424 DUP2 PUSH2 0x409 JUMP JUMPDEST DUP3 MSTORE POP POP JUMP JUMPDEST PUSH1 0x0 PUSH1 0x20 DUP3 ADD SWAP1 POP PUSH2 0x43F PUSH1 0x0 DUP4 ADD DUP5 PUSH2 0x41B JUMP JUMPDEST SWAP3 SWAP2 POP POP JUMP JUMPDEST PUSH1 0x0 DUP1 REVERT JUMPDEST PUSH2 0x453 DUP2 PUSH2 0x409 JUMP JUMPDEST DUP2 EQ PUSH2 0x45E JUMPI PUSH1 0x0 DUP1 REVERT JUMPDEST POP JUMP JUMPDEST PUSH1 0x0 DUP2 CALLDATALOAD SWAP1 POP PUSH2 0x470 DUP2 PUSH2 0x44A JUMP JUMPDEST SWAP3 SWAP2 POP POP JUMP JUMPDEST PUSH1 0x0 PUSH1 0x20 DUP3 DUP5 SUB SLT ISZERO PUSH2 0x48C JUMPI PUSH2 0x48B PUSH2 0x445 JUMP JUMPDEST JUMPDEST PUSH1 0x0 PUSH2 0x49A DUP5 DUP3 DUP6 ADD PUSH2 0x461 JUMP JUMPDEST SWAP2 POP POP SWAP3 SWAP2 POP POP JUMP JUMPDEST PUSH2 0x4AC DUP2 PUSH2 0x3B5 JUMP JUMPDEST DUP2 EQ PUSH2 0x4B7 JUMPI PUSH1 0x0 DUP1 REVERT JUMPDEST POP JUMP JUMPDEST PUSH1 0x0 DUP2 CALLDATALOAD SWAP1 POP PUSH2 0x4C9 DUP2 PUSH2 0x4A3 JUMP JUMPDEST SWAP3 SWAP2 POP POP JUMP JUMPDEST PUSH1 0x0 DUP1 PUSH1 0x0 PUSH1 0x60 DUP5 DUP7 SUB SLT ISZERO PUSH2 0x4E8 JUMPI PUSH2 0x4E7 PUSH2 0x445 JUMP JUMPDEST JUMPDEST PUSH1 0x0 PUSH2 0x4F6 DUP7 DUP3 DUP8 ADD PUSH2 0x4BA JUMP JUMPDEST SWAP4 POP POP PUSH1 0x20 PUSH2 0x507 DUP7 DUP3 DUP8 ADD PUSH2 0x4BA JUMP JUMPDEST SWAP3 POP POP PUSH1 0x40 PUSH2 0x518 DUP7 DUP3 DUP8 ADD PUSH2 0x4BA JUMP JUMPDEST SWAP2 POP POP SWAP3 POP SWAP3 POP SWAP3 JUMP JUMPDEST PUSH1 0x0 DUP3 DUP3 MSTORE PUSH1 0x20 DUP3 ADD SWAP1 POP SWAP3 SWAP2 POP POP JUMP JUMPDEST PUSH32 0x4F776E61626C653A206E6577206F776E657220697320746865207A65726F2061 PUSH1 0x0 DUP3 ADD MSTORE PUSH32 0x6464726573730000000000000000000000000000000000000000000000000000 PUSH1 0x20 DUP3 ADD MSTORE POP JUMP JUMPDEST PUSH1 0x0 PUSH2 0x58F PUSH1 0x26 DUP4 PUSH2 0x522 JUMP JUMPDEST SWAP2 POP PUSH2 0x59A DUP3 PUSH2 0x533 JUMP JUMPDEST PUSH1 0x40 DUP3 ADD SWAP1 POP SWAP2 SWAP1 POP JUMP JUMPDEST PUSH1 0x0 PUSH1 0x20 DUP3 ADD SWAP1 POP DUP2 DUP2 SUB PUSH1 0x0 DUP4 ADD MSTORE PUSH2 0x5BE DUP2 PUSH2 0x582 JUMP JUMPDEST SWAP1 POP SWAP2 SWAP1 POP JUMP JUMPDEST PUSH1 0x0 PUSH1 0x60 DUP3 ADD SWAP1 POP PUSH2 0x5DA PUSH1 0x0 DUP4 ADD DUP7 PUSH2 0x3BF JUMP JUMPDEST PUSH2 0x5E7 PUSH1 0x20 DUP4 ADD DUP6 PUSH2 0x3BF JUMP JUMPDEST PUSH2 0x5F4 PUSH1 0x40 DUP4 ADD DUP5 PUSH2 0x3BF JUMP JUMPDEST SWAP5 SWAP4 POP POP POP POP JUMP JUMPDEST PUSH32 0x4F776E61626C653A2063616C6C6572206973206E6F7420746865206F776E6572 PUSH1 0x0 DUP3 ADD MSTORE POP JUMP JUMPDEST PUSH1 0x0 PUSH2 0x632 PUSH1 0x20 DUP4 PUSH2 0x522 JUMP JUMPDEST SWAP2 POP PUSH2 0x63D DUP3 PUSH2 0x5FC JUMP JUMPDEST PUSH1 0x20 DUP3 ADD SWAP1 POP SWAP2 SWAP1 POP JUMP JUMPDEST PUSH1 0x0 PUSH1 0x20 DUP3 ADD SWAP1 POP DUP2 DUP2 SUB PUSH1 0x0 DUP4 ADD MSTORE PUSH2 0x661 DUP2 PUSH2 0x625 JUMP JUMPDEST SWAP1 POP SWAP2 SWAP1 POP JUMP INVALID LOG2 PUSH5 0x6970667358 0x22 SLT KECCAK256 0x2E 0x4B 0xE0 0xCF DELEGATECALL PUSH18 0x481175B2D3E3FD997F62EE6F0246E1C0EA10 JUMPI SUB PUSH23 0x87D9DF2B7E64736F6C6343000811003300000000000000 "},"methodIdentifiers":{"maxRebalanceBps()":"cef0ed23","minRunwayMonths()":"96c31bc1","owner()":"8da5cb5b","renounceOwnership()":"715018a6","transferOwnership(address)":"f2fde38b","updateParameters(uint256,uint256,uint256)":"f76d50ad","volatilityThresholdBps()":"71084cda"}}}}}