{
  "_format": "hh-sol-artifact-1",
  "contractName": "RiskParameters",
  "sourceName": "contracts/core/RiskParameters.sol",
  "abi": [
    {
      "inputs": [
        {
          "internalType": "uint256",
          "name": "_maxRebalanceBps",
          "type": "uint256"
        },
        {
          "internalType": "uint256",
          "name": "_volatilityThresholdBps",
          "type": "uint256"
        },
        {
          "internalType": "uint256",
          "name": "_minRunwayMonths",
          "type": "uint256"
        }
      ],
      "stateMutability": "nonpayable",
      "type": "constructor"
    },
    {
      "anonymous": false,
      "inputs": [
        {
          "indexed": true,
          "internalType": "address",
          "name": "previousOwner",
          "type": "address"
        },
        {
          "indexed": true,
          "internalType": "address",
          "name": "newOwner",
          "type": "address"
        }
      ],
      "name": "OwnershipTransferred",
      "type": "event"
    },
    {
      "anonymous": false,
      "inputs": [
        {
          "indexed": false,
          "internalType": "uint256",
          "name": "maxRebalanceBps",
          "type": "uint256"
        },
        {
          "indexed": false,
          "internalType": "uint256",
          "name": "volatilityThresholdBps",
          "type": "uint256"
        },
        {
          "indexed": false,
          "internalType": "uint256",
          "name": "minRunwayMonths",
          "type": "uint256"
        }
      ],
      "name": "ParametersUpdated",
      "type": "event"
    },
    {
      "inputs": [],
      "name": "maxRebalanceBps",
      "outputs": [
        {
          "internalType": "uint256",
          "name": "",
          "type": "uint256"
        }
      ],
      "stateMutability": "view",
      "type": "function"
    },
    {
      "inputs": [],
      "name": "minRunwayMonths",
      "outputs": [
        {
          "internalType": "uint256",
          "name": "",
          "type": "uint256"
        }
      ],
      "stateMutability": "view",
      "type": "function"
    },
    {
      "inputs": [],
      "name": "owner",
      "outputs": [
        {
          "internalType": "address",
          "name": "",
          "type": "address"
        }
      ],
      "stateMutability": "view",
      "type": "function"
    },
    {
      "inputs": [],
      "name": "renounceOwnership",
      "outputs": [],
      "stateMutability": "nonpayable",
      "type": "function"
    },
    {
      "inputs": [
        {
          "internalType": "address",
          "name": "newOwner",
          "type": "address"
        }
      ],
      "name": "transferOwnership",
      "outputs": [],
      "stateMutability": "nonpayable",
      "type": "function"
    },
    {
      "inputs": [
        {
          "internalType": "uint256",
          "name": "_maxRebalanceBps",
          "type": "uint256"
        },
        {
          "internalType": "uint256",
          "name": "_volatilityThresholdBps",
          "type": "uint256"
        },
        {
          "internalType": "uint256",
          "name": "_minRunwayMonths",
          "type": "uint256"
        }
      ],
      "name": "updateParameters",
      "outputs": [],
      "stateMutability": "nonpayable",
      "type": "function"
    },
    {
      "inputs": [],
      "name": "volatilityThresholdBps",
      "outputs": [
        {
          "internalType": "uint256",
          "name": "",
          "type": "uint256"
        }
      ],
      "stateMutability": "view",
      "type": "function"
    }
  ],
  "bytecode": "0x608060405234801561001057600080fd5b5060405161087238038061087283398181016040528101906100329190610172565b61004e61004361006b60201b60201c565b61007360201b60201c565b8260018190555081600281905550806003819055505050506101c5565b600033905090565b60008060009054906101000a900473ffffffffffffffffffffffffffffffffffffffff169050816000806101000a81548173ffffffffffffffffffffffffffffffffffffffff021916908373ffffffffffffffffffffffffffffffffffffffff1602179055508173ffffffffffffffffffffffffffffffffffffffff168173ffffffffffffffffffffffffffffffffffffffff167f8be0079c531659141344cd1fd0a4f28419497f9722a3daafe3b4186f6b6457e060405160405180910390a35050565b600080fd5b6000819050919050565b61014f8161013c565b811461015a57600080fd5b50565b60008151905061016c81610146565b92915050565b60008060006060848603121561018b5761018a610137565b5b60006101998682870161015d565b93505060206101aa8682870161015d565b92505060406101bb8682870161015d565b9150509250925092565b61069e806101d46000396000f3fe608060405234801561001057600080fd5b506004361061007d5760003560e01c806396c31bc11161005b57806396c31bc1146100c8578063cef0ed23146100e6578063f2fde38b14610104578063f76d50ad146101205761007d565b806371084cda14610082578063715018a6146100a05780638da5cb5b146100aa575b600080fd5b61008a61013c565b60405161009791906103ce565b60405180910390f35b6100a8610142565b005b6100b2610156565b6040516100bf919061042a565b60405180910390f35b6100d061017f565b6040516100dd91906103ce565b60405180910390f35b6100ee610185565b6040516100fb91906103ce565b60405180910390f35b61011e60048036038101906101199190610476565b61018b565b005b61013a600480360381019061013591906104cf565b61020e565b005b60025481565b61014a61026b565b61015460006102e9565b565b60008060009054906101000a900473ffffffffffffffffffffffffffffffffffffffff16905090565b60035481565b60015481565b61019361026b565b600073ffffffffffffffffffffffffffffffffffffffff168173ffffffffffffffffffffffffffffffffffffffff1603610202576040517f08c379a00000000000000000000000000000000000000000000000000000000081526004016101f9906105a5565b60405180910390fd5b61020b816102e9565b50565b61021661026b565b8260018190555081600281905550806003819055507f4dd522c050b46ef5e852ea87e7cd136b049dcb37740ad38386fbbb5cd30aa92483838360405161025e939291906105c5565b60405180910390a1505050565b6102736103ad565b73ffffffffffffffffffffffffffffffffffffffff16610291610156565b73ffffffffffffffffffffffffffffffffffffffff16146102e7576040517f08c379a00000000000000000000000000000000000000000000000000000000081526004016102de90610648565b60405180910390fd5b565b60008060009054906101000a900473ffffffffffffffffffffffffffffffffffffffff169050816000806101000a81548173ffffffffffffffffffffffffffffffffffffffff021916908373ffffffffffffffffffffffffffffffffffffffff1602179055508173ffffffffffffffffffffffffffffffffffffffff168173ffffffffffffffffffffffffffffffffffffffff167f8be0079c531659141344cd1fd0a4f28419497f9722a3daafe3b4186f6b6457e060405160405180910390a35050565b600033905090565b6000819050919050565b6103c8816103b5565b82525050565b60006020820190506103e360008301846103bf565b92915050565b600073ffffffffffffffffffffffffffffffffffffffff82169050919050565b6000610414826103e9565b9050919050565b61042481610409565b82525050565b600060208201905061043f600083018461041b565b92915050565b600080fd5b61045381610409565b811461045e57600080fd5b50565b6000813590506104708161044a565b92915050565b60006020828403121561048c5761048b610445565b5b600061049a84828501610461565b91505092915050565b6104ac816103b5565b81146104b757600080fd5b50565b6000813590506104c9816104a3565b92915050565b6000806000606084860312156104e8576104e7610445565b5b60006104f6868287016104ba565b9350506020610507868287016104ba565b9250506040610518868287016104ba565b9150509250925092565b600082825260208201905092915050565b7f4f776e61626c653a206e6577206f776e657220697320746865207a65726f206160008201527f6464726573730000000000000000000000000000000000000000000000000000602082015250565b600061058f602683610522565b915061059a82610533565b604082019050919050565b600060208201905081810360008301526105be81610582565b9050919050565b60006060820190506105da60008301866103bf565b6105e760208301856103bf565b6105f460408301846103bf565b949350505050565b7f4f776e61626c653a2063616c6c6572206973206e6f7420746865206f776e6572600082015250565b6000610632602083610522565b915061063d826105fc565b602082019050919050565b6000602082019050818103600083015261066181610625565b905091905056fea26469706673582212202e4be0cff471481175b2d3e3fd997f62ee6f0246e1c0ea1057037687d9df2b7e64736f6c63430008110033",
  "linkReferences": {},
  "deployedLinkReferences": {}
}