{
  "_format": "hh-sol-artifact-1",
  "contractName": "MockERC8004",
  "sourceName": "contracts/mocks/MockERC8004.sol",
  "abi": [
    {
      "inputs": [
        {
          "internalType": "bytes32",
          "name": "sessionId",
          "type": "bytes32"
        }
      ],
      "name": "cancelSession",
      "outputs": [],
      "stateMutability": "nonpayable",
      "type": "function"
    },
    {
      "inputs": [
        {
          "internalType": "bytes32",
          "name": "sessionId",
          "type": "bytes32"
        }
      ],
      "name": "claimSession",
      "outputs": [],
      "stateMutability": "nonpayable",
      "type": "function"
    },
    {
      "inputs": [
        {
          "components": [
            {
              "internalType": "address",
              "name": "initiator",
              "type": "address"
            },
            {
              "internalType": "address",
              "name": "recipient",
              "type": "address"
            },
            {
              "internalType": "address",
              "name": "token",
              "type": "address"
            },
            {
              "internalType": "uint256",
              "name": "amount",
              "type": "uint256"
            },
            {
              "internalType": "uint256",
              "name": "expiry",
              "type": "uint256"
            },
            {
              "internalType": "bytes",
              "name": "metadata",
              "type": "bytes"
            }
          ],
          "internalType": "struct IERC8004.Session",
          "name": "session",
          "type": "tuple"
        }
      ],
      "name": "createSession",
      "outputs": [
        {
          "internalType": "bytes32",
          "name": "sessionId",
          "type": "bytes32"
        }
      ],
      "stateMutability": "nonpayable",
      "type": "function"
    },
    {
      "inputs": [
        {
          "internalType": "bytes32",
          "name": "sessionId",
          "type": "bytes32"
        }
      ],
      "name": "getSession",
      "outputs": [
        {
          "components": [
            {
              "internalType": "address",
              "name": "initiator",
              "type": "address"
            },
            {
              "internalType": "address",
              "name": "recipient",
              "type": "address"
            },
            {
              "internalType": "address",
              "name": "token",
              "type": "address"
            },
            {
              "internalType": "uint256",
              "name": "amount",
              "type": "uint256"
            },
            {
              "internalType": "uint256",
              "name": "expiry",
              "type": "uint256"
            },
            {
              "internalType": "bytes",
              "name": "metadata",
              "type": "bytes"
            }
          ],
          "internalType": "struct IERC8004.Session",
          "name": "",
          "type": "tuple"
        }
      ],
      "stateMutability": "view",
      "type": "function"
    },
    {
      "inputs": [
        {
          "internalType": "bytes32",
          "name": "",
          "type": "bytes32"
        }
      ],
      "name": "sessions",
      "outputs": [
        {
          "internalType": "address",
          "name": "initiator",
          "type": "address"
        },
        {
          "internalType": "address",
          "name": "recipient",
          "type": "address"
        },
        {
          "internalType": "address",
          "name": "token",
          "type": "address"
        },
        {
          "internalType": "uint256",
          "name": "amount",
          "type": "uint256"
        },
        {
          "internalType": "uint256",
          "name": "expiry",
          "type": "uint256"
        },
        {
          "internalType": "bytes",
          "name": "metadata",
          "type": "bytes"
        }
      ],
      "stateMutability": "view",
      "type": "function"
    }
  ],
  "bytecode": "0x608060405234801561001057600080fd5b5061117f806100206000396000f3fe608060405234801561001057600080fd5b50600436106100575760003560e01c8063195cb2991461005c57806339b240bd146100785780634d213982146100a85780637dbd2832146100c4578063e5d56b02146100f9575b600080fd5b6100766004803603810190610071919061063c565b610129565b005b610092600480360381019061008d919061063c565b61012c565b60405161009f91906107dc565b60405180910390f35b6100c260048036038101906100bd919061063c565b610300565b005b6100de60048036038101906100d9919061063c565b6103ad565b6040516100f096959493929190610866565b60405180910390f35b610113600480360381019061010e91906108f2565b6104d1565b604051610120919061094a565b60405180910390f35b50565b610134610527565b6000808381526020019081526020016000206040518060c00160405290816000820160009054906101000a900473ffffffffffffffffffffffffffffffffffffffff1673ffffffffffffffffffffffffffffffffffffffff1673ffffffffffffffffffffffffffffffffffffffff1681526020016001820160009054906101000a900473ffffffffffffffffffffffffffffffffffffffff1673ffffffffffffffffffffffffffffffffffffffff1673ffffffffffffffffffffffffffffffffffffffff1681526020016002820160009054906101000a900473ffffffffffffffffffffffffffffffffffffffff1673ffffffffffffffffffffffffffffffffffffffff1673ffffffffffffffffffffffffffffffffffffffff168152602001600382015481526020016004820154815260200160058201805461027790610994565b80601f01602080910402602001604051908101604052809291908181526020018280546102a390610994565b80156102f05780601f106102c5576101008083540402835291602001916102f0565b820191906000526020600020905b8154815290600101906020018083116102d357829003601f168201915b5050505050815250509050919050565b600080828152602001908152602001600020600080820160006101000a81549073ffffffffffffffffffffffffffffffffffffffff02191690556001820160006101000a81549073ffffffffffffffffffffffffffffffffffffffff02191690556002820160006101000a81549073ffffffffffffffffffffffffffffffffffffffff0219169055600382016000905560048201600090556005820160006103a8919061059f565b505050565b60006020528060005260406000206000915090508060000160009054906101000a900473ffffffffffffffffffffffffffffffffffffffff16908060010160009054906101000a900473ffffffffffffffffffffffffffffffffffffffff16908060020160009054906101000a900473ffffffffffffffffffffffffffffffffffffffff169080600301549080600401549080600501805461044e90610994565b80601f016020809104026020016040519081016040528092919081815260200182805461047a90610994565b80156104c75780601f1061049c576101008083540402835291602001916104c7565b820191906000526020600020905b8154815290600101906020018083116104aa57829003601f168201915b5050505050905086565b60008142336040516020016104e893929190610bb4565b60405160208183030381529060405280519060200120905081600080838152602001908152602001600020818161051f919061113b565b905050919050565b6040518060c00160405280600073ffffffffffffffffffffffffffffffffffffffff168152602001600073ffffffffffffffffffffffffffffffffffffffff168152602001600073ffffffffffffffffffffffffffffffffffffffff1681526020016000815260200160008152602001606081525090565b5080546105ab90610994565b6000825580601f106105bd57506105dc565b601f0160209004906000526020600020908101906105db91906105df565b5b50565b5b808211156105f85760008160009055506001016105e0565b5090565b600080fd5b600080fd5b6000819050919050565b61061981610606565b811461062457600080fd5b50565b60008135905061063681610610565b92915050565b600060208284031215610652576106516105fc565b5b600061066084828501610627565b91505092915050565b600073ffffffffffffffffffffffffffffffffffffffff82169050919050565b600061069482610669565b9050919050565b6106a481610689565b82525050565b6000819050919050565b6106bd816106aa565b82525050565b600081519050919050565b600082825260208201905092915050565b60005b838110156106fd5780820151818401526020810190506106e2565b60008484015250505050565b6000601f19601f8301169050919050565b6000610725826106c3565b61072f81856106ce565b935061073f8185602086016106df565b61074881610709565b840191505092915050565b600060c08301600083015161076b600086018261069b565b50602083015161077e602086018261069b565b506040830151610791604086018261069b565b5060608301516107a460608601826106b4565b5060808301516107b760808601826106b4565b5060a083015184820360a08601526107cf828261071a565b9150508091505092915050565b600060208201905081810360008301526107f68184610753565b905092915050565b61080781610689565b82525050565b610816816106aa565b82525050565b600082825260208201905092915050565b6000610838826106c3565b610842818561081c565b93506108528185602086016106df565b61085b81610709565b840191505092915050565b600060c08201905061087b60008301896107fe565b61088860208301886107fe565b61089560408301876107fe565b6108a2606083018661080d565b6108af608083018561080d565b81810360a08301526108c1818461082d565b9050979650505050505050565b600080fd5b600060c082840312156108e9576108e86108ce565b5b81905092915050565b600060208284031215610908576109076105fc565b5b600082013567ffffffffffffffff81111561092657610925610601565b5b610932848285016108d3565b91505092915050565b61094481610606565b82525050565b600060208201905061095f600083018461093b565b92915050565b7f4e487b7100000000000000000000000000000000000000000000000000000000600052602260045260246000fd5b600060028204905060018216806109ac57607f821691505b6020821081036109bf576109be610965565b5b50919050565b6109ce81610689565b81146109d957600080fd5b50565b6000813590506109eb816109c5565b92915050565b6000610a0060208401846109dc565b905092915050565b610a11816106aa565b8114610a1c57600080fd5b50565b600081359050610a2e81610a08565b92915050565b6000610a436020840184610a1f565b905092915050565b600080fd5b600080fd5b600080fd5b60008083356001602003843603038112610a7757610a76610a55565b5b83810192508235915060208301925067ffffffffffffffff821115610a9f57610a9e610a4b565b5b600182023603831315610ab557610ab4610a50565b5b509250929050565b82818337600083830152505050565b6000610ad883856106ce565b9350610ae5838584610abd565b610aee83610709565b840190509392505050565b600060c08301610b0c60008401846109f1565b610b19600086018261069b565b50610b2760208401846109f1565b610b34602086018261069b565b50610b4260408401846109f1565b610b4f604086018261069b565b50610b5d6060840184610a34565b610b6a60608601826106b4565b50610b786080840184610a34565b610b8560808601826106b4565b50610b9360a0840184610a5a565b85830360a0870152610ba6838284610acc565b925050508091505092915050565b60006060820190508181036000830152610bce8186610af9565b9050610bdd602083018561080d565b610bea60408301846107fe565b949350505050565b60008135610bff816109c5565b80915050919050565b60008160001b9050919050565b600073ffffffffffffffffffffffffffffffffffffffff610c3584610c08565b9350801983169250808416831791505092915050565b6000819050919050565b6000610c70610c6b610c6684610669565b610c4b565b610669565b9050919050565b6000610c8282610c55565b9050919050565b6000610c9482610c77565b9050919050565b6000819050919050565b610cae82610c89565b610cc1610cba82610c9b565b8354610c15565b8255505050565b60008135610cd581610a08565b80915050919050565b60007fffffffffffffffffffffffffffffffffffffffffffffffffffffffffffffffff610d0a84610c08565b9350801983169250808416831791505092915050565b6000610d3b610d36610d31846106aa565b610c4b565b6106aa565b9050919050565b6000819050919050565b610d5582610d20565b610d68610d6182610d42565b8354610cde565b8255505050565b600080fd5b600080fd5b600080fd5b60008083356001602003843603038112610d9b57610d9a610d6f565b5b80840192508235915067ffffffffffffffff821115610dbd57610dbc610d74565b5b602083019250600182023603831315610dd957610dd8610d79565b5b509250929050565b600082905092915050565b7f4e487b7100000000000000000000000000000000000000000000000000000000600052604160045260246000fd5b60008190508160005260206000209050919050565b60006020601f8301049050919050565b600082821b905092915050565b600060088302610e7d7fffffffffffffffffffffffffffffffffffffffffffffffffffffffffffffffff82610e40565b610e878683610e40565b95508019841693508086168417925050509392505050565b610ea883610d20565b610ebc610eb482610d42565b848454610e4d565b825550505050565b600090565b610ed1610ec4565b610edc818484610e9f565b505050565b5b81811015610f0057610ef5600082610ec9565b600181019050610ee2565b5050565b601f821115610f4557610f1681610e1b565b610f1f84610e30565b81016020851015610f2e578190505b610f42610f3a85610e30565b830182610ee1565b50505b505050565b600082821c905092915050565b6000610f6860001984600802610f4a565b1980831691505092915050565b6000610f818383610f57565b9150826002028217905092915050565b610f9b8383610de1565b67ffffffffffffffff811115610fb457610fb3610dec565b5b610fbe8254610994565b610fc9828285610f04565b6000601f831160018114610ff85760008415610fe6578287013590505b610ff08582610f75565b865550611058565b601f19841661100686610e1b565b60005b8281101561102e57848901358255600182019150602085019450602081019050611009565b8683101561104b5784890135611047601f891682610f57565b8355505b6001600288020188555050505b50505050505050565b61106c838383610f91565b505050565b60008101600083018061108381610bf2565b905061108f8184610ca5565b5050506001810160208301806110a481610bf2565b90506110b08184610ca5565b5050506002810160408301806110c581610bf2565b90506110d18184610ca5565b5050506003810160608301806110e681610cc8565b90506110f28184610d4c565b50505060048101608083018061110781610cc8565b90506111138184610d4c565b5050506005810160a083016111288185610d7e565b611133818386611061565b505050505050565b6111458282611071565b505056fea2646970667358221220910c94c1282885d0529778fa2bcdbeb06e1be63129c56020328f04a539f1a90a64736f6c63430008110033",
  "linkReferences": {},
  "deployedLinkReferences": {}
}