{
  "_format": "hh-sol-artifact-1",
  "contractName": "MockSwap",
  "sourceName": "contracts/mocks/MockSwap.sol",
  "abi": [
    {
      "anonymous": false,
      "inputs": [
        {
          "indexed": true,
          "internalType": "address",
          "name": "caller",
          "type": "address"
        },
        {
          "indexed": false,
          "internalType": "address",
          "name": "tokenFrom",
          "type": "address"
        },
        {
          "indexed": false,
          "internalType": "address",
          "name": "tokenTo",
          "type": "address"
        },
        {
          "indexed": false,
          "internalType": "uint256",
          "name": "amountIn",
          "type": "uint256"
        },
        {
          "indexed": false,
          "internalType": "uint256",
          "name": "amountOut",
          "type": "uint256"
        }
      ],
      "name": "Swapped",
      "type": "event"
    },
    {
      "inputs": [
        {
          "internalType": "address",
          "name": "tokenFrom",
          "type": "address"
        },
        {
          "internalType": "address",
          "name": "tokenTo",
          "type": "address"
        },
        {
          "internalType": "uint256",
          "name": "amountIn",
          "type": "uint256"
        },
        {
          "internalType": "address",
          "name": "recipient",
          "type": "address"
        }
      ],
      "name": "swapExactIn",
      "outputs": [],
      "stateMutability": "nonpayable",
      "type": "function"
    }
  ],
  "bytecode": "0x608060405234801561001057600080fd5b506108b9806100206000396000f3fe608060405234801561001057600080fd5b506004361061002b5760003560e01c806381436a5314610030575b600080fd5b61004a6004803603810190610045919061048b565b61004c565b005b600082905061007c82828673ffffffffffffffffffffffffffffffffffffffff166100d79092919063ffffffff16565b3373ffffffffffffffffffffffffffffffffffffffff167f6782190c91d4a7e8ad2a867deed6ec0a970cab8ff137ae2bd4abd92b3810f4d3868686856040516100c89493929190610510565b60405180910390a25050505050565b6101588363a9059cbb60e01b84846040516024016100f6929190610555565b604051602081830303815290604052907bffffffffffffffffffffffffffffffffffffffffffffffffffffffff19166020820180517bffffffffffffffffffffffffffffffffffffffffffffffffffffffff838183161783525050505061015d565b505050565b60006101bf826040518060400160405280602081526020017f5361666545524332303a206c6f772d6c6576656c2063616c6c206661696c65648152508573ffffffffffffffffffffffffffffffffffffffff166102259092919063ffffffff16565b90506000815114806101e15750808060200190518101906101e091906105b6565b5b610220576040517f08c379a000000000000000000000000000000000000000000000000000000000815260040161021790610666565b60405180910390fd5b505050565b6060610234848460008561023d565b90509392505050565b606082471015610282576040517f08c379a0000000000000000000000000000000000000000000000000000000008152600401610279906106f8565b60405180910390fd5b6000808673ffffffffffffffffffffffffffffffffffffffff1685876040516102ab9190610789565b60006040518083038185875af1925050503d80600081146102e8576040519150601f19603f3d011682016040523d82523d6000602084013e6102ed565b606091505b50915091506102fe8783838761030a565b92505050949350505050565b6060831561036c576000835103610364576103248561037f565b610363576040517f08c379a000000000000000000000000000000000000000000000000000000000815260040161035a906107ec565b60405180910390fd5b5b829050610377565b61037683836103a2565b5b949350505050565b6000808273ffffffffffffffffffffffffffffffffffffffff163b119050919050565b6000825111156103b55781518083602001fd5b806040517f08c379a00000000000000000000000000000000000000000000000000000000081526004016103e99190610861565b60405180910390fd5b600080fd5b600073ffffffffffffffffffffffffffffffffffffffff82169050919050565b6000610422826103f7565b9050919050565b61043281610417565b811461043d57600080fd5b50565b60008135905061044f81610429565b92915050565b6000819050919050565b61046881610455565b811461047357600080fd5b50565b6000813590506104858161045f565b92915050565b600080600080608085870312156104a5576104a46103f2565b5b60006104b387828801610440565b94505060206104c487828801610440565b93505060406104d587828801610476565b92505060606104e687828801610440565b91505092959194509250565b6104fb81610417565b82525050565b61050a81610455565b82525050565b600060808201905061052560008301876104f2565b61053260208301866104f2565b61053f6040830185610501565b61054c6060830184610501565b95945050505050565b600060408201905061056a60008301856104f2565b6105776020830184610501565b9392505050565b60008115159050919050565b6105938161057e565b811461059e57600080fd5b50565b6000815190506105b08161058a565b92915050565b6000602082840312156105cc576105cb6103f2565b5b60006105da848285016105a1565b91505092915050565b600082825260208201905092915050565b7f5361666545524332303a204552433230206f7065726174696f6e20646964206e60008201527f6f74207375636365656400000000000000000000000000000000000000000000602082015250565b6000610650602a836105e3565b915061065b826105f4565b604082019050919050565b6000602082019050818103600083015261067f81610643565b9050919050565b7f416464726573733a20696e73756666696369656e742062616c616e636520666f60008201527f722063616c6c0000000000000000000000000000000000000000000000000000602082015250565b60006106e26026836105e3565b91506106ed82610686565b604082019050919050565b60006020820190508181036000830152610711816106d5565b9050919050565b600081519050919050565b600081905092915050565b60005b8381101561074c578082015181840152602081019050610731565b60008484015250505050565b600061076382610718565b61076d8185610723565b935061077d81856020860161072e565b80840191505092915050565b60006107958284610758565b915081905092915050565b7f416464726573733a2063616c6c20746f206e6f6e2d636f6e7472616374000000600082015250565b60006107d6601d836105e3565b91506107e1826107a0565b602082019050919050565b60006020820190508181036000830152610805816107c9565b9050919050565b600081519050919050565b6000601f19601f8301169050919050565b60006108338261080c565b61083d81856105e3565b935061084d81856020860161072e565b61085681610817565b840191505092915050565b6000602082019050818103600083015261087b8184610828565b90509291505056fea26469706673582212200902ddbcdbc122a2436f108453b9f1b9c65fb5063feafe6ba5b07a57d21aae3c64736f6c63430008110033",
  "linkReferences": {},
  "deployedLinkReferences": {}
}